:020000040800F2
:10000000000003202D9600087D960008B78C00089C
:100010007D9600087D9600087D960008000000008F
:10002000000000000000000000000000719A0008BD
:100030007D96000800000000D19A0008A98C0008F5
:100040007D9600087D9600087D9600087D96000844
:100050007D9600087D9600087D9600087D96000834
:100060007D9600087D9600087D9600087D96000824
:100070007D9600087D9600087D9600087D96000814
:100080007D9600087D9600087D9600087D96000804
:100090007D9600087D9600087D9600087D960008F4
:1000A0007D9600087D9600087D9600087D960008E4
:1000B0007D9600087D9600087D9600087D960008D4
:1000C0007D9600087D9600087D9600087D960008C4
:1000D0007D960008B98C0008C58C00087D96000844
:1000E0007D9600087D9600087D9600087D960008A4
:1000F0007D9600087D9600087D9600087D96000894
:100100007D9600087D9600087D9600087D96000883
:100110007D9600087D9600087D9600087D96000873
:100120007D9600087D9600087D9600087D96000863
:100130007D9600087D9600087D9600087D96000853
:100140007D9600087D9600087D9600087D96000843
:100150007D9600087D9600087D9600087D96000833
:100160007D9600087D9600087D9600087D96000823
:100170007D9600087D9600087D960008000000002E
:100180007D9600087D9600087D9600087D96000803
:100190007D9600087D9600087D9600087D960008F3
:0C01A0007D9600087D9600087D96000802
:1001B00010B5054C237833B9044B13B10448AFF3A1
:1001C00000800123237010BD900200200000000079
:1001D0004413010808B5034B1BB103490348AFF3AF
:1001E000008008BD000000009402002044130108B4
:1001F00010F8012B11F8013B012A28BF9A42F7D0D1
:10020000D01A7047034613F8012B002AFBD1181AA5
:1002100001387047000000000000000000000000EE
:1002200001F0FF01102A2BDB10F0070F08D010F8A7
:10023000013B013A8B422DD010F0070F42B3F6D1AB
:10024000F0B441EA012141EA014122F007047FF0C4
:1002500000070023F0E80256083C85EA010586EA1B
:10026000010685FA47F5A3FA87F586FA47F6A5FA57
:1002700087F68EB9EED1F0BC01F0FF0102F0070263
:1002800032B110F8013B013A83EA010313B1F8D10E
:100290000020704701387047002D06BF35460338EF
:1002A000073815F0010F07D1013015F4807F02BF28
:1002B000013015F4C03F0130F0BC0138704700BF79
:1002C00081F0004102E000BF83F0004330B54FEA07
:1002D00041044FEA430594EA050F08BF90EA020F74
:1002E0001FBF54EA000C55EA020C7FEA645C7FEA07
:1002F000655C00F0E2804FEA5454D4EB5555B8BF2A
:100300006D420CDD2C4480EA020281EA030382EA9A
:10031000000083EA010180EA020281EA0303362D2C
:1003200088BF30BD11F0004F4FEA01314FF4801CFF
:100330004CEA113102D0404261EB410113F0004F11
:100340004FEA03334CEA133302D0524263EB4303C8
:1003500094EA050F00F0A780A4F10104D5F1200E66
:100360000DDB02FA0EFC22FA05F2801841F10001C1
:1003700003FA0EF2801843FA05F359410EE0A5F195
:1003800020050EF1200E012A03FA0EFC28BF4CF0C6
:10039000020C43FA05F3C01851EBE37101F000457C
:1003A00007D54FF0000EDCF1000C7EEB00006EEB89
:1003B0000101B1F5801F1BD3B1F5001F0CD3490813
:1003C0005FEA30004FEA3C0C04F101044FEA44526A
:1003D00012F5800F80F09A80BCF1004F08BF5FEAF1
:1003E000500C50F1000041EB045141EA050130BDD1
:1003F0005FEA4C0C404141EB010111F4801FA4F174
:100400000104E9D191F0000F04BF01460020B1FAC8
:1004100081F308BF2033A3F10B03B3F120020CDA00
:100420000C3208DD02F1140CC2F10C0201FA0CF0DE
:1004300021FA02F10CE002F11402D8BFC2F1200C43
:1004400001FA02F120FA0CFCDCBF41EA0C019040F9
:10045000E41AA2BF01EB0451294330BD6FEA040442
:100460001F3C1CDA0C340EDC04F11404C4F120022D
:1004700020FA04F001FA02F340EA030021FA04F33F
:1004800045EA030130BDC4F10C04C4F1200220FA96
:1004900002F001FA04F340EA0300294630BD21FAD4
:1004A00004F0294630BD94F0000F83F4801306BF9A
:1004B00081F480110134013D4EE77FEA645C18BF8E
:1004C0007FEA655C29D094EA050F08BF90EA020F25
:1004D00005D054EA000C04BF1946104630BD91EA1D
:1004E000030F1EBF0021002030BD5FEA545C05D120
:1004F0004000494128BF41F0004130BD14F580045F
:100500003CBF01F5801130BD01F0004545F0FE41D2
:1005100041F470014FF0000030BD7FEA645C1ABF07
:10052000194610467FEA655C1CBF0B46024650EA3E
:10053000013406BF52EA033591EA030F41F400216A
:1005400030BD00BF90F0000F04BF0021704730B5F0
:100550004FF4806404F132044FF000054FF00001C5
:1005600050E700BF90F0000F04BF0021704730B586
:100570004FF4806404F1320410F0004548BF40425B
:100580004FF000013EE700BF42004FEAE2014FEAB0
:1005900031014FEA02701FBF12F07F4393F07F4F8B
:1005A00081F06051704732F07F4208BF704793F08E
:1005B0007F4F04BF41F40021704730B54FF46074A1
:1005C00001F0004521F000411CE700BF50EA0102A4
:1005D00008BF704730B54FF000050AE050EA01024D
:1005E00008BF704730B511F0004502D5404261EBBD
:1005F00041014FF4806404F132045FEA915C3FF4FE
:10060000D8AE4FF003025FEADC0C18BF03325FEA9A
:10061000DC0C18BF033202EBDC02C2F1200300FA4B
:1006200003FC20FA02F001FA03FE40EA0E0021FA70
:1006300002F11444BDE600BF70B54FF0FF0C4CF45E
:10064000E06C1CEA11541DBF1CEA135594EA0C0F10
:1006500095EA0C0F00F0DEF82C4481EA030621EA4B
:100660004C5123EA4C5350EA013518BF52EA033586
:1006700041F4801143F4801338D0A0FB02CE4FF038
:100680000005E1FB02E506F00042E0FB03E54FF068
:100690000006E1FB03569CF0000F18BF4EF0010E60
:1006A000A4F1FF04B6F5007F64F5407404D25FEA5C
:1006B0004E0E6D4146EB060642EAC62141EA55510F
:1006C0004FEAC52040EA5E504FEACE2EB4F1FD0C51
:1006D00088BFBCF5E06F1ED8BEF1004F08BF5FEACF
:1006E000500E50F1000041EB045170BD06F0004681
:1006F00046EA010140EA020081EA0301B4EB5C042E
:10070000C2BFD4EB0C0541EA045170BD41F4801125
:100710004FF0000E013C00F3AB8014F1360FDEBF4A
:10072000002001F0004170BDC4F10004203C35DA26
:100730000C341BDC04F11404C4F1200500FA05F3A9
:1007400020FA04F001FA05F240EA020001F000424A
:1007500021F0004110EBD37021FA04F642EB0601C0
:100760005EEA430E08BF20EAD37070BDC4F10C04EA
:10077000C4F1200500FA04F320FA05F001FA04F2AE
:1007800040EA020001F0004110EBD37041F100019A
:100790005EEA430E08BF20EAD37070BDC4F12005A5
:1007A00000FA05F24EEA020E20FA04F301FA05F20D
:1007B00043EA020321FA04F001F0004121FA04F2B5
:1007C00020EA020000EBD3705EEA430E08BF20EA85
:1007D000D37070BD94F0000F0FD101F000464000BF
:1007E00041EB010111F4801F08BF013CF7D041EA41
:1007F000060195F0000F18BF704703F00046520045
:1008000043EB030313F4801F08BF013DF7D043EA15
:100810000603704794EA0C0F0CEA135518BF95EACB
:100820000C0F0CD050EA410618BF52EA4306D1D152
:1008300081EA030101F000414FF0000070BD50EA71
:10084000410606BF1046194652EA430619D094EAFB
:100850000C0F02D150EA013613D195EA0C0F05D1E5
:1008600052EA03361CBF104619460AD181EA030139
:1008700001F0004141F0FE4141F470014FF00000F1
:1008800070BD41F0FE4141F4780170BD70B54FF08C
:10089000FF0C4CF4E06C1CEA11541DBF1CEA13550C
:1008A00094EA0C0F95EA0C0F00F0A7F8A4EB0504EE
:1008B00081EA030E52EA03354FEA013100F08880E5
:1008C0004FEA03334FF0805545EA131343EA1263AE
:1008D0004FEA022245EA111545EA10654FEA002663
:1008E0000EF000419D4208BF964244F1FD0404F51C
:1008F000407402D25B084FEA3202B61A65EB030578
:100900005B084FEA32024FF480104FF4002CB6EB34
:10091000020E75EB030E22BFB61A754640EA0C00B4
:100920005B084FEA3202B6EB020E75EB030E22BFF4
:10093000B61A754640EA5C005B084FEA3202B6EB35
:10094000020E75EB030E22BFB61A754640EA9C00F4
:100950005B084FEA3202B6EB020E75EB030E22BFC4
:10096000B61A754640EADC0055EA060E18D04FEA82
:10097000051545EA16754FEA06164FEAC30343EA22
:1009800052734FEAC2025FEA1C1CC0D111F4801FEF
:100990000BD141EA00014FF000004FF0004CB6E7E8
:1009A00011F4801F04BF01430020B4F1FD0C88BF87
:1009B000BCF5E06F3FF6AFAEB5EB030C04BFB6EB92
:1009C000020C5FEA500C50F1000041EB045170BD85
:1009D0000EF0004E4EEA113114EB5C04C2BFD4EBB2
:1009E0000C0541EA045170BD41F480114FF0000E36
:1009F000013C90E645EA060E8DE60CEA135594EAB2
:100A00000C0F08BF95EA0C0F3FF43BAF94EA0C0FB4
:100A10000AD150EA01347FF434AF95EA0C0F7FF429
:100A200025AF104619462CE795EA0C0F06D152EA7D
:100A300003353FF4FDAE1046194622E750EA410661
:100A400018BF52EA43067FF4C5AE50EA41047FF472
:100A50000DAF52EA43057FF4EBAE12E74FF0FF3CD7
:100A600006E000BF4FF0010C02E000BF4FF0010CA8
:100A70004DF804CD4FEA410C7FEA6C5C4FEA430C21
:100A800018BF7FEA6C5C1BD001B050EA410C0CBF70
:100A900052EA430C91EA030F02BF90EA020F0020D2
:100AA000704710F1000F91EA030F58BF994208BF39
:100AB00090422CBFD8176FEAE37040F001007047F6
:100AC0004FEA410C7FEA6C5C02D150EA013C07D14D
:100AD0004FEA430C7FEA6C5CD6D152EA033CD3D098
:100AE0005DF8040B704700BF8446104662468C4692
:100AF0001946634600E000BF01B5FFF7B7FF0028C5
:100B000048BF10F1000F01BD4DF808EDFFF7F4FFED
:100B10000CBF012000205DF808FB00BF4DF808ED78
:100B2000FFF7EAFF34BF012000205DF808FB00BF9B
:100B30004DF808EDFFF7E0FF94BF012000205DF8BD
:100B400008FB00BF4DF808EDFFF7CEFF94BF012072
:100B500000205DF808FB00BF4DF808EDFFF7C4FF6B
:100B600034BF012000205DF808FB00BF4FEA410CB4
:100B70007FEA6C5C02D150EA013C0AD14FEA430C97
:100B80007FEA6C5C02D152EA033C02D14FF00000D4
:100B900070474FF0010070474FEA410212F5001212
:100BA00015D211D56FF47873B3EB625212D94FEAB4
:100BB000C12343F0004343EA505311F0004F23FA9E
:100BC00002F018BF404270474FF00000704750EAF3
:100BD000013005D111F0004008BF6FF000407047B0
:100BE0004FF00000704700BF4A0011D212F500120A
:100BF00011D20DD56FF47873B3EB62520ED44FEA75
:100C0000C12343F0004343EA505323FA02F07047F4
:100C10004FF00000704750EA013002D14FF0FF3032
:100C200070474FF0000070474FEA4102B2F1E043D5
:100C300024BFB3F5001CDCF1FE5C0DD901F0004CC3
:100C40004FEAC0024CEA5070B2F1004F40EB830013
:100C500008BF20F00100704711F0804F21D113F13F
:100C60003872BCBF01F00040704741F480114FEA78
:100C70005252C2F11802C2F1200C10FA0CF320FA01
:100C800002F018BF40F001004FEAC1234FEAD3231E
:100C900003FA0CFC40EA0C0023FA02F34FEA430388
:100CA000CCE77FEA625307D150EA01331EBF4FF011
:100CB000FE4040F44000704701F0004040F0FE402C
:100CC00040F40000704700BF53B94AB9002908BF7B
:100CD00000281CBF4FF0FF314FF0FF3000F072B919
:100CE000ADF1080C6DE904CE00F006F8DDF804E083
:100CF000DDE9022304B070472DE9F047089E044661
:100D00008846002B4BD18A42154667D9B2FA82F247
:100D10004AB1C2F1200701FA02F320FA07F7954021
:100D200047EA030894404FEA154E230CB8FBFEF740
:100D30001FFA85FC0EFB178843EA084307FB0CF1FA
:100D4000994209D9EB1807F1FF3080F01B819942D5
:100D500040F21881023F2B445B1AA4B2B3FBFEF0B1
:100D60000EFB103344EA034400FB0CFCA44509D9F4
:100D70002C1900F1FF3380F00781A44540F2048173
:100D800002382C4440EA0740A4EB0C0400271EB1B3
:100D9000D4400023C6E900433946BDE8F0878B42C2
:100DA00009D9002E00F0EB800027C6E90001384683
:100DB0003946BDE8F087B3FA83F7002F47D18B425D
:100DC00002D3824200F2FA80841A61EB030301200D
:100DD0009846002EE0D0C6E90048DDE702B9FFDE04
:100DE000B2FA82F2002A40F08F80491B4FEA154E7A
:100DF0001FFA85F80127B1FBFEFC230C0EFB1C112A
:100E000043EA014308FB0CF1994207D9EB180CF1B6
:100E1000FF3002D2994200F2CD808446591AA3B223
:100E2000B1FBFEF00EFB101443EA044408FB00F88B
:100E3000A04507D92C1900F1FF3302D2A04500F2DA
:100E4000B6801846A4EB080440EA0C409FE7C7F1BF
:100E5000200CBB4022FA0CFE4EEA030E01FA07F406
:100E600020FA0CF521FA0CF34FEA1E482543B3FB98
:100E7000F8F92C0C08FB19331FFA8EFA44EA0343E5
:100E800009FB0AF49C4202FA07F200FA07F10BD9B7
:100E90001EEB030309F1FF3080F087809C4240F293
:100EA0008480A9F1020973441B1BADB2B3FBF8F0B7
:100EB00008FB103345EA034400FB0AFAA24508D9AF
:100EC0001EEB040400F1FF336BD2A24569D902384E
:100ED000744440EA0940A0FB0289A4EB0A044C4593
:100EE000C2464B4654D351D0002E69D0B1EB0A050F
:100EF00064EB030404FA0CFCFD40FC404CEA0505DD
:100F0000C6E90054002747E7C2F1200320FA03F79F
:100F1000954001FA02F021FA03F34FEA154E3843E7
:100F2000010CB3FBFEF71FFA85F80EFB173341EAFD
:100F3000034107FB08F38B4204FA02F407D969184E
:100F400007F1FF3C2FD28B422DD9023F2944CB1A07
:100F500081B2B3FBFEF00EFB103341EA034100FB0C
:100F600008F38B4207D9691800F1FF3C17D28B4276
:100F700015D902382944C91A40EA07473BE73746E2
:100F8000304609E70746E7E61846FBE64145ABD29F
:100F9000B8EB020A69EB0E0201381346A4E760467B
:100FA000E9E7184695E76746D1E781467CE70238CE
:100FB0002C4447E7ACF1020C2B442FE7384608E7F6
:100FC0003746E9E6704700BF1F4B1B88F7B59BB259
:100FD0004FF6FF7293421D491D4A06D1012313703B
:100FE00000230B70FA2003B0F0BD180A08BF0120DF
:100FF00010701578174F0B700220012300264FF058
:101000000B0CAB4201D90020EDE75C1E8DF80760A8
:101010000CFB04F49DF807200A2A02D90133DBB245
:10102000EFE79DF8072000F1006101F5EC31224463
:10103000098827F812109DF8072001320230D2B239
:1010400080B28DF80720E5E700D80108A808002045
:1010500024000020B20200202DE9F0410B4FDFF800
:101060003080012400253B78A34202D22846BDE807
:10107000F081611E661C08EB4101B0B206F00AFD6A
:101080001A2C28BF0A25F4B2EDE700BF2400002087
:10109000FC7000202DE9F74F0024DFF864A0DFF892
:1010A0006490ADF8064026469AF800305FFA84F85E
:1010B000434503D2002003B0BDE8F08F0A2707FBA9
:1010C0000897002506F11C0B0BEB05000DF106013E
:1010D00080B206F0DFFCBDF8063007EB4502537026
:1010E0001B0A07F815300135052DEDD10A2303FB46
:1010F000089805360023B6B288F809300134D3E7E2
:10110000240000209A0700202DE9F74300201D4D00
:101110001D4FADF806002B78C1B28B4284B200F1AE
:10112000010626D804F13207184EBFB24FF000096D
:10113000002504F1990808EB05000DF1060180B2C5
:1011400006F0A8FCBDF8063006EB450253701B0AFA
:1011500006F815300135052DEDD10534A4B2BC4299
:1011600086F8099006F10A06E2D1002003B0BDE836
:10117000F083CB3007EB410180B206F08BFC3046A8
:10118000C9E700BF24000020F606002092060020D8
:101190002DE9F04385B0002603A9E420ADF80C60EA
:1011A000ADF80E6006F076FC08B99DF80C6003A956
:1011B000E52006F06FFC0DF10E010446E62006F076
:1011C00069FC002C68D128B9BDF80C30BDF80E4080
:1011D00004EB034403A9E72006F05CFC0DF10E01CB
:1011E0000546E82006F056FC002D57D128B9BDF879
:1011F0000C30BDF80E5005EB034503A9E92006F0BD
:1012000049FCDFF8AC9030B9BDF80C301A0A89F807
:101210000020234A137003A9EA2006F03BFCDFF804
:10122000948030B9BDF80C301A0A88F800201D4AA5
:10123000137003A9EB2006F02DFC1B4F28B9BDF855
:101240000C301A0A3A70194A137099F8003043B1F9
:10125000134A12782AB1009221462A46304603F0FA
:10126000E5FF98F8003043B10E4A12782AB1009297
:1012700021462A46304603F0D9FF3B7843B10B4A5A
:1012800012782AB1009221462A46304603F0CEFF5A
:10129000002005B0BDE8F08300249BE70025ACE703
:1012A0008F060020900600207F0900209106002074
:1012B0007D0900207E09002037B54FF48A7001A90E
:1012C00006F0E8FB444C002861D1BDF804302370DF
:1012D0001B0A01A94FF48E70637006F0DBFB002837
:1012E0005AD1BDF80430DA0B22715B0801A940F233
:1012F0001510E38006F0CEFB384C002851D1BDF824
:101300000430238001A94FF48B7006F0C3FB002842
:101310004AD1BDF80430638001A940F2171006F0ED
:10132000B9FB002843D1BDF8043023711B0A01A981
:101330004FF48C70637106F0ADFB0DF106010546AC
:1013400040F2191006F0A6FB002D35D1002833D14C
:10135000BDF80620BDF8043043EA024301A94FF46A
:101360008D70A36006F096FB00282ED1BDF80430E6
:1013700023731B0A637301A940F21B1006F08AFB5A
:1013800038BBBDF80430A376002003B030BD144B49
:101390001A7822705B789CE7114B1A792271DB88EE
:1013A000A4E7104B1B88ACE70E4B5B88B3E70D4BF3
:1013B0001A7922715B79BAE70B4B1B7813B14FF4A2
:1013C000E133CBE7074B9B68C8E74FF4C053A381D9
:1013D000D1E7044B9B7ED6E7AA680020EC69002089
:1013E0000000002008000020AF0200202DE9F04797
:1013F00088B008AF002327F8023DDFF8C09001262F
:10140000B5B205F13A00800080B2394606F042FBE1
:101410005FFA86F88246002849D1BDF81E20130ADB
:10142000B6EB131F43D113F00F0340D006EBC604F5
:10143000AD004C44ADB205F1E9006370227239464B
:1014400080B206F027FBBDF81E3063711A0A05F161
:10145000EA00A270394680B206F01CFBBDF81E30CF
:10146000A3711A0A05F1EB00E270394680B206F06A
:1014700011FBBDF81E30E3711A0A227141466078F3
:1014800006F0B2FD217AA378CDF814A0E279049297
:10149000A27903926279029222790192E278009213
:1014A0004046C1F3400201F0010106F0A1FE013601
:1014B000082EA5D1002008B0BDE8F087D019002083
:1014C0002DE9F84F32200CF0F3F80446002865D0DF
:1014D000344D2B78FE2B63D1334FDFF8D0804FF0A3
:1014E000000BBA4604F1140123462A1BD05C03F812
:1014F000010B8B42FAD10BEB07091435631C4A46EA
:1015000004F1150153F8040B42F8040B8B42F9D196
:101510001422002120460CF0F8F8002329788A1CB8
:10152000D2B2012ADEB202D9322B18D11E46A3193B
:1015300013F8013C0BB10136F6B230460CF0B8F8A6
:101540000AEB0B030146D86068B9142248460CF038
:10155000DCF820460CF0B4F80E20BDE8F88FE1541A
:1015600001350133DAE7324621460CF0C3F898F82A
:101570000030324601330021204688F800300CF05C
:10158000C4F82B78FE2B04D10BF1140BBBF1640FC4
:10159000A8D120460CF094F80020DEE7FB20DCE721
:1015A000FF20DAE700DC0108C86A0020490A0020B1
:1015B00008B5FFF709FDFFF74FFDFFF76BFDFFF7DC
:1015C000A3FDFFF7E5FDFFF777FEFFF70FFFBDE88F
:1015D0000840FFF775BF00002DE9F0410B4FDFF821
:1015E0003080012400253B78A34202D22846BDE882
:1015F000F081631E661C38F8131011B1B0B206F00A
:1016000071FA1A2C28BF0A25F4B2ECE72400002056
:10161000FC7000202DE9F84F0026DFF85880144FA9
:1016200035464FF00A0998F80020F3B29A4202D2E8
:101630000020BDE8F88F09FB03F307EB030AFB5C0E
:10164000A3B1002405F11C0B0AEB44021AF8143074
:1016500051780BEB040001EB032189B280B2013415
:1016600006F040FA052CEFD10535ADB20136DAE7C8
:101670009A0700202400002070B50D460146E420A2
:1016800014461E4606F02EFAC5F30F21E52006F09B
:1016900029FAA9B2E62006F025FAC4F30F21E720C3
:1016A00006F020FAA1B2E82006F01CFA9DF810100E
:1016B00001EB062189B2E92006F014FA9DF81430F6
:1016C0009DF8181001EB032189B2EA2006F00AFA0E
:1016D0009DF81C309DF8201001EB032189B2EB200E
:1016E00006F000FA002070BD10B51F4C2378617819
:1016F0004FF48A7043EA411106F0F4F92379E18846
:101700001A4C41EAC33189B24FF48E7006F0EAF9FF
:10171000218840F2151006F0E5F961884FF48B70CE
:1017200006F0E0F9237B617940F2171043EA0121CA
:1017300006F0D8F921894FF48C7006F0D3F961894D
:1017400040F2191006F0CEF92379617B4FF48D70C9
:1017500043EA012106F0C6F9A17E40F21B1006F013
:10176000C1F9002010BD00BFAA680020EC6900206C
:101770002DE9F041342200210D480E4FDFF8308072
:101780000BF0C3FF012400253B78A34202D2284678
:10179000BDE8F081631E661C38F8131011B1B0B2B9
:1017A00006F0A0F91A2C28BF0A25F4B2ECE700BF16
:1017B000FC7000202400002038B5054C054D23683E
:1017C000AB4203D006F0D6F900B9256038BD00BFA2
:1017D000F07F0020ADDEEFBE70B58EB00DF10E03D0
:1017E000009303AA06AB05A9012006F0D7FA0DF174
:1017F000120304AA0EAD009307A908AB022006F05D
:10180000CDFABDF80C3045F8143D00242946059862
:101810000126CDE90A640AF0FDFC02230B93294658
:10182000BDF81230089809930A940AF0F3FCBDF849
:101830000C10059822460AF079FE052007F060FC9E
:10184000BDF8121008980AF06BFE90B93246BDF848
:101850000C1005980AF06AFE052007F051FCBDF84F
:10186000121008980AF05CFE831B584258410EB0D3
:1018700070BD2046FBE7000008B5044B9968FEF7F1
:10188000B7FCB0FA80F0400908BD00BF8C00002012
:101890002DE9F84F1D491E4FDFF87880DFF878906A
:1018A000DFF878A0DFF878B00546FEF7A1FC062443
:1018B0000646FEB139462846FEF79AFCE0B141469D
:1018C0002846FEF795FCC8B149462846FEF790FC2D
:1018D000B0B151462846FEF78BFC98B159462846D0
:1018E000FEF786FC80B1601E10F0FF04E1D12046B7
:1018F000BDE8F88F0120FBE70220F9E70320F7E7B6
:101900000420F5E70520F3E70620F1E7A11501081B
:10191000E21C0108981501089A1501089D15010897
:10192000A015010838B507F0B5FA07F041FB06F03D
:1019300053F906F0F9F905F0D9FD07F06DFB06F053
:101940001FF807F09BFB06F089FA70B1FFF734FF30
:10195000BFF34F8F2E492F4BCA6802F4E062134346
:10196000CB60BFF34F8F00BFFDE7FFF735FF90B3AC
:10197000294B2A4D322001241C7007F0C1FB05F0D1
:1019800019FD4FF4E132AA6020460134A968E4B29F
:1019900007F0B8FD072CF7D1FFF70AFE07F043FE6A
:1019A00005F05CFF1E4B1F481C7801224FF480613C
:1019B000BCB90AF0BBFD4FF4FA7007F0A1FB00229E
:1019C0004FF4806117480AF0B1FD03F0AFF8164BF1
:1019D00001221A7038BD322007F092FB05F0EAFCB4
:1019E000DAE70AF0A3FD4FF4FA7007F089FB002252
:1019F0004FF480610B480AF099FD642007F080FBEA
:101A0000084801224FF480610AF090FD6420D4E779
:101A100000ED00E00400FA05AF020020EC690020B0
:101A2000A808002000040240AE02002008B509F01A
:101A3000BBFD05F003FBFFF775FF03F0B7F8BDE84A
:101A4000084007F02BBE00002DE9F3410F4F104D69
:101A5000064601244FF00308A6420FD03B886B7066
:101A60001A0A2A700022CDF800800A231146204667
:101A7000AC7003F0C3FC0A2007F015FE0134E4B299
:101A8000072CE9D1002002B0BDE8F0815800002009
:101A90006C0700202DE9F04F354B364D83B093F89D
:101AA00000C00CF1070303F4FC7300AFADEB030DB2
:101AB00000236C461A46D9B28C4530D80138012330
:101AC0002D4A235416252B4E7A6005FB00259E4691
:101AD0004FF0020835F8131061B136F810905A1E15
:101AE0000EFA02F242EA090204EBD10126F81020B4
:101AF00001F8018C0133072BECD1DFF878E00221EB
:101B00000131C9B20023184601F1FF39DAB2944518
:101B10000AD80028F4D10C37BD46BDE8F08FE25456
:101B200025F813200133C6E7E25C4A451ED17A68E6
:101B3000162505FB032A4FEA430801253AF815202C
:101B40008AB1D208013AA65C6EB94FF0010B6E1E45
:101B50000BFA06F638F80EB0A15446EA0B0601302F
:101B600028F80E60C0B20135072DE7D10133CDE76B
:101B700024000020F0040020B20200200B78F0B511
:101B800004463BB90278094B1E78002318469E4252
:101B900002DCF0BDFF22F6E7E55C954203D2CF5CA4
:101BA0000FB9D8B22A460133F1E700BF2400002064
:101BB00010B5064B02461C780123111A8C4201DC39
:101BC000184610BD12F8011B0B40F6E72400002058
:101BD0002DE9F04F8FB005468B463222002101A837
:101BE0000BF093FD6E1E1A2200214648464C474FCB
:101BF0000BF08BFD0023A355BB55454B162202FB72
:101C00000636012098461FFA8BF236F810306BB179
:101C1000B2EBD30F0AD15C44012304F8013C394BE9
:101C2000C0B283F800B00FB0BDE8F08F01300728D4
:101C3000EBD1384BFF211A78002001239A4229DA90
:101C400000254FF001094FF0160A01A8FFF7B0FF79
:101C500038B901A92C48FFF791FF0130C5B25D45A5
:101C600026D1284900237A1912F8010C5A1C0028A1
:101C70003ED1244D01235C4436F8131000293CD09A
:101C800014F8012C2A4412F8012CB2EBD10F34D1F4
:101C9000D8B2C8E79D421EBF04EB030C0CF8011C30
:101CA00007EB030C03F1010318BF0CF8010CC5E7A7
:101CB000681E0EAB03440AFB008C03F8349C012120
:101CC0003CF8113083B1C3F3C703013B0EAA1A4499
:101CD00012F8342C42B9225C14F803E00132D2B27B
:101CE000964584BFE254FD5401310729E8D1ACE7A1
:101CF000DBB2CD5413460546B5E70133072BBBD104
:101D000091E700BF716B00204909002063090020A2
:101D1000B2020020240000202DE9F74F4F49DFF8E0
:101D200064814F4F04464E480CF06CFC4C48FEF763
:101D300069FA4FF0FF3582B20095322348492046B8
:101D400007F0E8FB01263246414638460CF01EFCFF
:101D50003846FEF757FA013682B2009532233946EB
:101D6000204607F0D7FB072EEDD100953223032242
:101D70003C493B4D204607F0CDFB00273A4B1B78F2
:101D80005FFA87F843450BD84FF0FF3300930122E9
:101D900032233649204607F0BDFB03B0BDE8F08F83
:101DA00008F101023249DFF8E0A0DFF8E0B0284690
:101DB0000CF0ECFB2846FEF725FA4FF0FF3682B216
:101DC000009632232946204607F0A4FB1623294A11
:101DD00003FB08F302EB0309D15A274B062000FB53
:101DE0000131052228460CF027FC009632230522FB
:101DF0002946204607F08EFB0096322301221F4918
:101E0000204607F087FB012639F81620EAB9594623
:101E100028460CF0BBFB2846FEF7F4F94FF0FF38DC
:101E200082B2CDF80080322329462046013607F0E1
:101E300071FB072EE8D1CDF8008032230222104931
:101E4000204607F067FB013798E702F00703514689
:101E5000D20828460CF09AFBDDE700BF6A1501089E
:101E6000DA080020B71F01082400002067320108AB
:101E700081150108B2020020B51501087A15010884
:101E8000B81F01087C1501088D150108901501087F
:101E90002DE9F3472949DFF8B080DFF8B090DFF88B
:101EA000B0A0054626480CF0ADFB2548FEF7AAF980
:101EB0004FF0FF33009382B232232149284607F0C6
:101EC00029FB012498F80030A34212D21D491C4876
:101ED0000CF098FB1A48FEF795F94FF0FF3300938A
:101EE00082B232231649284607F014FB02B0BDE83F
:101EF000F087134E0023621E5F1C39F812104FF456
:101F0000004242FA03F3194211D03B4622465146A1
:101F100030460CF03BFB3046FEF774F94FF0FF33D0
:101F2000009382B232233146284607F0F3FA0A2F93
:101F30003B46E0D10134E4B2C4E700BF1C15010800
:101F4000DA0800204A15010824000020FC70002057
:101F5000381501082DE9F04F85B0804607F066FC82
:101F6000734F7449DFF820A2734DDFF820920446C6
:101F70000CF048FB3A7871496F480CF007FB6E494A
:101F800020460CF023FB6E4B6E491A786A480CF021
:101F9000FDFA694920460CF019FB06230022009344
:101FA0006949654802230CF0F1FA634920460CF0B8
:101FB0000DFB664A664960480CF0E8FA5E49204627
:101FC0000CF004FB634A64495B480CF0DFFA5A49A1
:101FD00020460CF0FBFA614957480CF013FB5649B8
:101FE00020460CF0F3FA01263246514628460CF002
:101FF000CDFA294620460CF0E9FA16F80930042BF0
:1020000008D8DFE803F0037C7E808200544928462C
:102010000CF0F8FA2946204601360CF0D7FA072EC4
:10202000E2D150494448DFF86891DFF868A1DFF851
:1020300068B10CF0E7FA404920460CF0C7FA0025D9
:1020400060236B4303EB090253F809306E1C002B2D
:102050005DD13246444938480CF098FA364920465A
:102060000CF0B4FA062E3546EAD14049DFF82CA12F
:10207000DFF82CB1DFF8C09020460CF0A7FA3C49FD
:1020800020460CF0A3FA2046FEF7BCF800230546D4
:102090003A78013A5E1C3AF812104FF4004242FAC4
:1020A00003F3194208D05946324648460CF06EFAFE
:1020B000494620460CF08AFA062E3346E8D12046DF
:1020C000FEF7A0F8ADB2A84203D12A4920460CF091
:1020D0007DFA264920460CF079FAB8F1000F0BD0B2
:1020E0002046FEF78FF84FF0FF33009382B2322381
:1020F0002146404607F00EFA05B0BDE8F08F1E49B4
:1021000085E71E4983E71E4981E71E497FE7906BFB
:1021100005F062F903905AF8250005F05DF9039B7C
:1021200000903246594604480CF030FA96E700BF5A
:10213000A80800207B150108DA0800207E1301089A
:10214000B00200209A130108B6130108D313010846
:10215000DF130108F6130108FF1301081814010822
:102160003114010892140108AA140108B81F0108CB
:10217000F514010817150108381401084D14010859
:1021800059140108731401082B1401082A090020AE
:1021900080170020CC0F0020C5140108FC7000201F
:1021A000121501082DE9F04726490546FEF720F8EB
:1021B00018B9254B1878BDE8F08724492846FEF762
:1021C00017F800283BD02F78232F17D0204BDFF8AB
:1021D00088A093F8008000264FF00A09F4B2A045C9
:1021E0001DD81C4F00240A2606FB04712846FDF763
:1021F000FFFFF8B9200240F0FE0008E0681C0BF079
:102200001DFAC0B228B1124B1B78834201D300B231
:10221000D1E70D4B1B788342F9D06620CBE709FB51
:1022200006A12846FDF7E4FF10B90FB120B2C2E7BE
:102230000136D3E701340A2CD6D16420BBE7FF2056
:10224000B9E700BF68350108A80800209415010807
:1022500024000020920600209A0700202DE9F84370
:10226000284F06460C46002507EB85012046FDF762
:10227000BFFF00283FD00135042DF5D1224BDFF8F8
:1022800094901F7801254FF00A08AF421DDCDFF85B
:10229000888000250A2707FB05812046FDF7A8FF57
:1022A00060B301350A2DF6D1184D194B2B602F68FC
:1022B0009FB9184806EB8606214600EB46000CF055
:1022C000A1F9BDE8F843FFF7A5B908FB0591204641
:1022D000FDF78EFF90B10135D7E73B68D3F800805A
:1022E0004046FDF78FFF4146024620460CF092F92A
:1022F00030B17B68DAE70620BDE8F8830720FBE70A
:102300000820F9E76E13010824000020340900209A
:10231000A00000209A070020920600202DE9F04737
:10232000354F05460E4600244FF00A09B84609FB12
:1023300004713046FDF75CFF58B9013D2F4A012377
:1023400003FA04F432F815301C4322F81540BDE8B6
:10235000F08701340A2CEAD1294F002407EB8401CD
:102360003046FDF745FF002840D00134042CF5D15C
:10237000244BDFF89CA01F7801244FF00A09A742E4
:102380001ADC214F214B3B603C68ECB90A2303FB6C
:1023900004F018F800202ABB314640440CF032F912
:1023A000013D164A012303FA04F432F815301C43A8
:1023B00022F815400020CAE709FB04A13046FDF7CA
:1023C00017FFA8B10134DAE72368D3F80090484634
:1023D000FDF718FF4946024630460CF01BF948B19C
:1023E0006368D0E701340A2CD1D1D9E70620AEE7E3
:1023F0000720ACE70820AAE792060020F606002096
:102400006E1301082400002038090020A0000020DD
:102410009A07002013B51E200BF04AF91E22002156
:1024200004460BF072F9094A108B937D117D0190DF
:10243000527D00920139064A204652F82120054972
:102440000CF0A4F8204602B010BD00BFEC690020DB
:10245000101B0108A31501081FB5094B4FF0FF32EF
:102460001B7801924FF0010CCDE9022C0222009260
:102470000A46194603F0FCF905B05DF804FB00BFFD
:10248000A8080020F0B587B0002507460E462B4669
:102490002A462946CDE90355CDE901550095284640
:1024A000FFF7EAF86023791E59430C4A5458701E0E
:1024B000434354B1D458384654B105F013FA30466A
:1024C00005F010FA284607B0F0BDD35823B13046C6
:1024D00005F008FA2046F6E76820F4E780170020A8
:1024E0002DE9F84F214E224D34781427013C07FB8B
:1024F00004548146FDF786FED4F80CB08246BBF149
:10250000000F29D05846FDF77DFE0AF102018046F2
:10251000014458460CF01CF83378E060013B07FB9F
:10252000035308F10102D868494610440CF06AF8D8
:102530003378013B07FB03531322DB6803F80820C1
:1025400030781422013802FB0050C16861B90BF0E9
:10255000DCF80E20BDE8F88F01300BF0A9F84946F1
:10256000E0600CF04FF8EBE70020F3E7490A0020A9
:10257000C86A002038B5451E15F8014F04B938BDAA
:102580000BF088F820442346427802F00302012A27
:1025900008BF20332B70EFE72DE9F04FBB4E96F8C4
:1025A0000080B8F1050F89B0834600F06D81DFF837
:1025B000FCA2142101FB08F202EB0A03002422F81A
:1025C0000A40C3F80240017807936229574640F059
:1025D000FB8081782E2940F0F7804578303DEDB2C0
:1025E000062D00F206814FF00109C41C22F80A9062
:1025F000A7499D70072220460CF00CF8E0B9079A15
:102600000523D370A34B05EBC50213441C7A14EACF
:10261000090404D00024337801333370E9E0CDE9B4
:102620000449CDE90244CDE9004423462246494607
:10263000284605F0DDFDEEE70E22974920460BF017
:10264000E9FFA0B9079A0623D370924B05EBC502A8
:1026500013441C7A14F00204DCD1CDE90449CDE91D
:102660000244CDE9004423464A462146E0E70C22D5
:102670008A4920460BF0CEFF00284ED1854A05EB53
:10268000C5010A449478ACB9079B0922DA700BF1B2
:102690000F000AF0CFFF3278142101FB02AAC3B267
:1026A0008AF80430CDE90449CDE90244CDE900447B
:1026B0002246DAE7D478ACB9079B0A22DA700BF12C
:1026C0000F000AF0B7FF3378142202FB03AAC0B24E
:1026D0008AF80400CDE90449CDE90244CDE90004BB
:1026E0002346E5E71279002A6AD1142404FB08A8DE
:1026F0000B2288F803200BF10F000AF09BFF3378C0
:1027000004FB03A7C0B2002401233871CDE90443C0
:10271000CDE9024401900094E2E70D226049204691
:102720000BF078FF00287FF475AF5A4AE90048198A
:10273000104444799CB9079B0C22DA700BF110000D
:102740000AF078FF3378142202FB03AAC0B28AF899
:102750000400CDE90449CDE902040194DBE7807966
:10276000A8B9142404FB08A80D2288F803200BF153
:1027700010000AF05FFF337804FB03A7C0B2002407
:1027800001233871CDE9044303900294E5E729441D
:102790000A44D479B4B94FF0140909FB08A80E22F1
:1027A00088F803200BF110000AF044FF337809FB8E
:1027B00003A7C0B201233871CDE904030394E4E711
:1027C0000C2428E70D2426E7594636480BF01AFF5B
:1027D000354934480CF07CFD3349054600200CF0A7
:1027E00077FD3149804600200CF072FD044625B982
:1027F0006724204609B0BDE8F08F2846FFF73CF873
:10280000054660B1B8F1000F0CD1002CF0D133783F
:1028100014225A43B9180220B854CD70FCE6B8F11E
:10282000000FE5D0002CE3D02046FFF725F83378E1
:102830004FF0140909FB03F3FA18A8B10421F95465
:10284000D570D07134784046FFF722F814223378DF
:1028500002FB047402FB037760707A78002AC7D009
:10286000013333700024C4E70321F954D5702046A6
:102870000AF0DDFE51EC100BFEF7D6F9337809FBB8
:102880000373C3F80600DDE70E24B2E7490A00200F
:102890006D2B0108D0190020662B0108E41C0108EB
:1028A000F11C0108B2090020103F0108C86A00208D
:1028B00008B50346022B084614D0032B05D0012B84
:1028C0000ED1BDE80840FFF767BE084B084A1B78E9
:1028D0001421013B01FB032301221A7404F064FC60
:1028E000002008BDBDE80840FFF7FABD490A0020F6
:1028F000C86A00202DE9F04F1C468BB00023CDE9BB
:102900000401CDE90733DFF820B38DF824301646F3
:102910003046FFF72FFE9BF80070002F49D10322AD
:10292000BF4930460BF076FE074600285BD1F01C0D
:10293000FFF732FE002835D0BA4920460BF062FE80
:102940008BF8007000252046FDF75CFC237853B11E
:10295000059B43B14FF0FF33009382B232232146EF
:10296000049806F0D7FD2046FDF74CFC00210246F6
:1029700020460AF0CAFE002DCAD1AB4B8DF8245078
:102980001B78CDE9075553B9059B43B14FF0FF3391
:10299000009338223223A549049806F0BBFD0BB002
:1029A000BDE8F08F02238BF800300D23237005461D
:1029B000C9E706229E4930460BF02CFE50B98BF831
:1029C00000009C490320FFF773FF9B4920460BF052
:1029D00019FEB7E7022F06D13046FFF781FD002828
:1029E000E3D09049F2E72E2130460BF0FEFD07467A
:1029F000002800F010810322904903380BF00AFEF2
:102A0000002800F008810AF045FE7B78184490F811
:102A1000019019F0040940F0FE80BA1B314607A866
:102A20000BF00AFE07A8FFF7BDFB854B1B7803934D
:102A30009842804606D14FF419722146781C06F060
:102A40008FFEB4E7642801D17E49BFE7662801D133
:102A50007D49BBE7FF2807F101072BD149461A2220
:102A60007A480AF052FE3046FDF7CCFB054607A82F
:102A7000FDF7C8FB6A1E121A394675480BF0DCFDDB
:102A80003046FDF7BFFB054607A8FDF7BBFB2B1A39
:102A90009BB241461722039802F0A6FE21464FF44E
:102AA0001972384606F05CFE6A49054620460BF06E
:102AB0008DFD48E75FFA80FABAF1FE0F40D1DFF8EA
:102AC000BCA149461A22C0F3072860488AF8008052
:102AD0000AF01BFE3046FDF795FB814607A8FDF77F
:102AE00091FB09F1FF32121A394659480BF0A4FD47
:102AF0003046FDF787FB814607A8FDF783FBA9EB6E
:102B000000039BB217224146039802F06DFE4C4B26
:102B1000514A1B78013B32F813309AF800201341D8
:102B2000DB0706D54FF419722146384606F018FE29
:102B3000054607AB2246494920460BF027FD02E730
:102B400006224749474D38460BF064FD814648BB95
:102B5000024619212870504602F066FE642006F0F5
:102B6000A2FD414A3648127800784B46514604F09F
:102B7000C7FA2B78602B7FF4E5AE4FF47A71012011
:102B800008F092FA394B1B78002B3FF4DBAE384A41
:102B900038491388013313802046434622460BF000
:102BA000F5FCCFE63046FDF72DFB814607A8FDF783
:102BB00029FB09F1FF32121A394625480BF03CFD7A
:102BC0003046FDF71FFB074607A8FDF71BFB013F3B
:102BD0003F1ABAB21721504602F026FE4246264955
:102BE00020460BF0D3FC237863B12046FDF70AFBA7
:102BF000059B3BB10123009382B232232146049806
:102C000006F088FC2046FDF7FDFA0021024620462A
:102C10000AF07BFDADE74FF41972214630460EE70E
:102C20002C1B0108301B0108780A0020AB1C01088E
:102C3000821B01087B150108891B0108CA1B0108BA
:102C4000A8080020CE1B0108F51B01082405002060
:102C50006C0700201A1C0108F6060020371C01082A
:102C6000631C0108AA680020B00200204809002067
:102C7000FA1200208B1C01086A1C0108480A002077
:102C80002DE9F04385B000234FF0FF3101208DF88E
:102C90000F3008F009FA06F0C9FD4F4B4F4D9B6805
:102CA000B3F5612F07460CD001242B78A34204D042
:102CB0004FF46121204606F025FC0134E4B2072CD4
:102CC000F3D1474B474A29781B881278009146492F
:102CD000464EDFF83891062000FB0313444945486F
:102CE0000BF054FC0A234FF424724349287806F071
:102CF00037FC4048FDF786FA0A2382B23D4928781E
:102D000006F02EFC0024B04628783C4900F1FF3C38
:102D1000C02216F80C3002FB0C12BF2B0AD8D15C73
:102D200002EB030EA1B3002208F80C308DF80F104F
:102D30008EF800200A2301220DF10F0106F010FC8D
:102D40009DF80F300D2B2DD10A2302222C49287813
:102D500006F006FC1CB92B492B480BF053FC3B46F4
:102D6000294A28780121FFF7C5FD274925480BF09E
:102D700049FC3222002124480AF0C7FC00244FF00D
:102D80008053C9F80030BFF34F8FBFF36F8FBBE79D
:102D9000BF2B08BF0B4603F1010308BF08F80C1056
:102DA0009BB2BAE70A2BEAD0082B01D07F2B08D1BF
:102DB000002CE4D0013CE3B2134A00215CB2D154B0
:102DC000DDE7A3F120025E2AD9D8312CDFBF0E4AFD
:102DD0001355013464B2D2E7EC690020B002002040
:102DE00058000020A8080020B5150108760F002023
:102DF000FF1C01084A0A00202A1D0108F60A0020CB
:102E000066320108160A00208009002004ED00E067
:102E1000F8B5174B174A1B780F46013B142101FBED
:102E20000323DB680BB3144C236803B920602568C7
:102E3000287808B92060F8BD132128460BF0D5FB8F
:102E4000064640B1421B2946384601360BF0F4FBDA
:102E500026600120EFE7294638460BF0D3FB3846C1
:102E6000FDF7D0F928442060F3E71846E3E700BFF8
:102E7000490A0020C86A0020740A002030B51425D1
:102E80002E4A05FB00F15318515C012903D0032998
:102E90000BD0002008E09A782949DB7802EBC202C7
:102EA000885CC31A5842584130BDD9785B784C1EB3
:102EB0000C21614305FB0020224CD0F8062061580C
:102EC000013BD1ED007A07EE102A052BE1D8DFE8AF
:102ED00003F0030B1320282EF4EE477AF1EE10FADC
:102EE0000CBF01200020DFE7F4EEC77AF1EE10FA04
:102EF000CCBF01200020D7E7F4EEC77AF1EE10FA3C
:102F0000C7D5F5EE407AF1EE10FA14BF012000208B
:102F1000CAE7F4EEC77AF1EE10FAACBF0120002048
:102F2000C2E7F4EEC77AF1EE10FAEAD9B1E7F4EEAF
:102F3000477AF1EE10FAE4D1ABE700BFC86A00208F
:102F4000D01900208C0000202DE9F84306F06EFC1B
:102F5000194DDFF87080DFF870900646002498F86D
:102F60000020A3B29A4202D80020BDE8F8832B7C4F
:102F700013B901341435F2E7E0B2FFF77FFF002800
:102F8000F7D00E4B0E4F20221A703946E868FFF733
:102F90003FFF0028EDD03A463346002199F8000063
:102FA000FFF7A8FC3046FDF72DF900210246304618
:102FB0000AF0ABFBE9E700BFC86A0020AA6800205E
:102FC000E4090020490A0020B0020020BFF34F8F1F
:102FD0000549064BCA6802F4E0621343CB60BFF3B5
:102FE0004F8F00BFFDE700BF00ED00E00400FA05D1
:102FF0000020704708B5FFF7E9FF000008B5034B54
:1030000003491A880BF0C2FA002008BDCCF7FF1F55
:103010001C23010813B502A9002341F8043D04460E
:103020006846009305F078FA694620460BF0EAFA04
:103030000198FDF7A9FA02460B46204602490BF01B
:10304000A5FA002002B010BD7420010813B502A932
:10305000002341F8043D04466846009305F05CFAFD
:10306000694620460BF0CEFA0098FDF78DFA02462D
:103070000B46204602490BF089FA002002B010BD31
:10308000432001087FB516460023CDE9013301AA8C
:103090000023012104463046039306F0CBFB05468E
:1030A00002AA3046022106F0C5FB2B78323B012BE9
:1030B00006462DD828460AF0C1FA1649C5B2304650
:1030C000FDF796F820B114493046FDF791F8D0B9D4
:1030D0001049284605F0B2FB03AA0E49284605F020
:1030E000DFFB03A920460BF08DFADDED037A0B49D7
:1030F000FCEEE77A204617EE903A9AB20BF046FAC9
:10310000002004B070BD064920460BF07BFAF7E7BB
:103110000449F9E7BB1F0108BF1F0108C61F0108CA
:10312000D61F0108E81F01082DE9F04F85B00023E4
:103130000393012148230446104603AA8DF8083062
:1031400006F078FB4A490546FDF752F800285FD1A2
:10315000484D494B2A78DFF838A1DFF828B11344ED
:10316000012613F8017C2B785FFA86F94B4544D091
:103170000BF0BAF904A94FF0640801F8080D0A230E
:103180000122CDF80080484606F0C4F9484606F012
:10319000ADF903689DF808205B68DBB29A420CBF6A
:1031A00036495946324620460BF0F0F92046FDF7E5
:1031B00029F895F800C0CDF8008082B20A23604655
:1031C000214606F0A7F92E4920460BF01BFA2046AF
:1031D000FDF718F895F800C06423009382B20A2323
:1031E0002146604606F096F901374FF0C0082B786B
:1031F000013B08FB03A3DB5D33B10136072EB2D1DF
:10320000002005B0BDE8F08F012008F0F9F9EEE7E5
:1032100095F90030702B28D1681C0AF00FFAC5B25E
:103220006B1E052B1CD80BF05FF904A9642301F871
:10323000080D012200932846322306F06BF9002086
:1032400006F054F903689DF808205B68DBB29A42E7
:103250000CBF0A490B492A4620460BF097F9CFE7E5
:10326000094920460BF0CEF9CAE70849F9E700BF43
:1032700094150108B0020020760F0020B238010832
:10328000DF380108CD380108333901084E3901080B
:10329000F60A0020F7B51746054600246A460121C4
:1032A0003846CDE9004406F0C5FA90F90030702B9D
:1032B00011D101300AF0C2F9C6B201AA0221384682
:1032C00006F0B8FA90F90030702B06D00F49284666
:1032D0000BF098F912E06724EFE701300AF0AEF93D
:1032E000002CF3D1C4B221463046FFF7CBF840B9E9
:1032F00023463246064928460BF048F9002003B021
:10330000F0BD6728E2D00349E1E700BF4E3901086C
:10331000D8390108F5390108F7B5174605460024E4
:103320006A4601213846CDE9004406F083FA90F957
:103330000030702B11D101300AF080F9C6B201AA19
:103340000221384606F076FA90F90030702B06D04C
:103350000F4928460BF056F912E06724EFE70130D9
:103360000AF06CF9002CF3D1C4B221463046FFF7C5
:1033700073F840B923463246064928460BF006F951
:10338000002003B0F0BD6728E2D00349E1E700BFA9
:103390004E39010898210108BB2101082DE9F347A6
:1033A0008146104602AA002442F8044D012106F08D
:1033B00041FA0AF03FF9C5B2002D3FD0204F3B78CB
:1033C000AB423BD36B1E4FF0140808FB03F31D4EBA
:1033D0009C5303EB060A02339C518AF81040DAF83A
:1033E0000C000AF06DF9CAF80C403B78AB420BD8E0
:1033F000013B3B7003F0D8FE134948460BF002F93D
:10340000002002B0BDE8F08708FB05F3F35C93B140
:103410006C1E08FB04F404F1140EB644F446BCE838
:103420000F0034440FC4DCF8003023601422002164
:1034300070460AF06AF90135EDB2D6E70349DCE7D8
:10344000490A0020C86A0020A0220108D6220108EB
:1034500037B50446104602AA002542F8045D012152
:1034600006F0E8F90AF0E6F8C0B290B10A4B1B7812
:1034700083420ED3094B1422013802FB003005743D
:1034800003F092FE064920460BF0BCF8002003B082
:1034900030BD0449F7E700BF490A0020C86A002090
:1034A000B4260108D622010813B50446104602AA24
:1034B000002342F8043D012106F0BCF90AF0BAF8F5
:1034C000C0B298B10A4B1B7883420FD3094B142228
:1034D000013802FB00300123037403F065FE064946
:1034E00020460BF08FF8002002B010BD0349F7E72B
:1034F000490A0020C86A0020AC200108D622010831
:103500002DE9F04F6C4B8BB006AA044603F1080678
:10351000924618685968154603C50833B3422A46CF
:10352000F7D11868654F9B88AB8028604FF0FF3358
:103530003878634900933722322305F0EBFF614E60
:103540004FF00008604B1B785FFA88F56A1CAB42AD
:10355000D2B207D85D4920460BF054F800200BB0DA
:10356000BDE8F08F14236B43F118F35C3BB10B7C87
:103570005749C3EBC303534420460BF007F8142309
:1035800003FB05F206EB020BB15C012921D00329F4
:1035900064D04FF0140B0BFB056B4E4DDBF80C00A9
:1035A0002946FFF735FC002876D14B4920460BF021
:1035B0000DF82046FCF726FE3D784FF0FF330093D0
:1035C00082B232232146284605F0A4FF08F1010803
:1035D000B8E79BF80320DBF80C10053A092AD8D885
:1035E00001A050F822F000BF11360008253600086F
:1035F0009335000893350008333600083336000849
:10360000333600084B3600084B3600084B360008AE
:1036100003FB056322469B780091304920460AF05F
:10362000B5FFB6E703FB056322469B7800912C4962
:10363000F4E703FB0562937801911279294900921E
:10364000224620460AF0A2FFA3E703FB0562937817
:1036500001911279009224492246F2E7234B9858AF
:103660009BF80320224B0590013A0C2101FB023903
:10367000FCF78AFFCDE902019BF801301D49013BAF
:1036800003EB43030B440093D9F808301A49224650
:1036900020460AF07BFF7CE722462B46174920464E
:1036A0000AF074FF2846FCF7ADFD002102462846CB
:1036B0000AF02BF872E700BF60130108B002002087
:1036C000082B0108C86A0020490A0020CA2B0108FB
:1036D000402B0108790A0020BE2B01084C2B010861
:1036E0005D2B0108752B01088D2B0108CE6A002087
:1036F0008C00002078260108A62B0108B62B0108B3
:1037000010B5044607F096FF80B2A0F5886008283F
:103710001DD8DFE800F0161C1A1C05141C1C18002C
:103720000C4A0D4920460AF031FF07F07DFF224682
:10373000030B0A4920460AF029FF002010BD084A61
:10374000EFE7084AEDE7084AEBE7084AE9E7084AE5
:10375000E7E700BF842501088E250108D12501086F
:10376000A1250108AB250108B5250108BF250108E1
:10377000C925010808B504490AF044FF03490AF0C5
:1037800025FF002008BD00BF203A0108663201086D
:1037900010B5044605F00CFCFEF73CFE034902465A
:1037A00020460AF0F3FE002010BD00BFE42101080E
:1037B0002DE9F743154600236A46012104462846B1
:1037C000CDE9003306F036F8524B53491860042215
:1037D00007460AF01FFF002854D1009D4F493E1DA7
:1037E000043D2A4630460AF015FF88B94C4B1B7839
:1037F000602B05D14B4A4C4920460AF0C7FE6EE0CB
:10380000202B01D1494AF6E7002B71D1484AF2E753
:103810002A46484930460AF0FDFE28B9404B5B78FD
:10382000032BE7D0012BECE72A46434930460AF048
:10383000F1FE18B9414B9A684149DDE72A464149F2
:1038400030460AF0E7FE10B93C4B1A88F4E72A46E6
:103850003D4930460AF0DEFE10B9384B5A88EBE796
:103860002A463A4930460AF0D5FE10B9334B1A7948
:10387000E2E72A46364930460AF0CCFE98BB2F4B89
:103880005A79D9E70522334938460AF0C3FE06467D
:1038900048BB284601AA022105F0CCFFDFF8CC8006
:1038A00005460A2707FB06812846FCF7A1FC10B352
:1038B00001360A2EF6D12A4627499DE76B1E38F8B5
:1038C0001330334205D02B462246394620460AF0B3
:1038D0005DFE0135EDB299F80030AB42EED200202A
:1038E00003B0BDE8F0831D4920460AF08BFEF6E7E1
:1038F0003A461B4980E72A461A49DFF87490DFF8F8
:103900007480194F204601250AF040FE05FA06F69C
:10391000E1E700BFBC0A00204C2301085123010845
:10392000AA68002094150108131401085A230108FD
:103930005E2301086323010869230108EC69002064
:10394000861C0108752301087E2301088E230108C7
:10395000A0230108B2230108F1230108C0230108B4
:10396000D32301080C240108B82301089206002083
:1039700024000020F606002073B50646104602AA71
:10398000002342F8043D012105F054FF019C194930
:10399000224605460AF03EFE80B9174D174C0FCD62
:1039A0000FC495E8070084E80700FDF79DFE144961
:1039B00030460AF027FE002002B070BD22461149B1
:1039C00028460AF027FE024608B10F49F0E7162103
:1039D000FF2001F029FF0D4B022264201A7005F030
:1039E00062FEFDF7C5FE03F0CDFC642005F05BFE32
:1039F0000749DDE70C22010808000020EC690020DF
:103A0000132201083A220108402201082A07002057
:103A10004F2201082DE9F04F14468DB0002307AA6C
:103A2000012105462046CDE90733CDE909330B9343
:103A300005F000FF8D4E8E493060042207460AF0E3
:103A4000E9FD002840F03C8108AA0221204605F04B
:103A5000F1FE884B88491860336803F10408079B1E
:103A6000A3F1040907464A4640460AF0D3FD002860
:103A70004ED1DDF820808149424638460AF0CAFD21
:103A80000446E8B97E4B602259781A700902114346
:103A90004FF48A7004F026F8079B32680021D15455
:103AA000744B78491B6828460AF070FD3CB3764990
:103AB00028460AF08BFD754928460AF087FD1EE06E
:103AC0004246734938460AF0A5FD044610B96C4BCE
:103AD0002022D9E742466F4938460AF09BFD04464A
:103AE00010B9674B4022CFE742466B4938460AF08F
:103AF00091FD044638B1694928460AF083FD00204B
:103B00000DB0BDE8F08F5E4B597818700902BFE721
:103B10004A46634940460AF07DFD002837D1DDF86A
:103B200020805649424638460AF074FD044630B9B2
:103B3000534B197803225A7041F44071A8E742466A
:103B4000534938460AF066FD044630B94C4B1978A3
:103B500001225A7041F480719AE74246464938463C
:103B60000AF058FD044630B9454B197802225A70C4
:103B700041F400718CE74246474938460AF04AFD55
:103B800004460028B7D13E4B5870197880E74A4662
:103B9000444940460AF03EFD98B9384609F04AFDCE
:103BA000B0F5612FA7D8404C81B2A0604FF48C7063
:103BB00003F098FF618940F2191003F093FF01248C
:103BC0006AE74A46394940460AF024FD044650B99E
:103BD000384609F02FFD81B200298CD0324B40F2DB
:103BE0001510198056E74A46314940460AF012FD41
:103BF000044658B9384609F01DFD81B200293FF44A
:103C00007AAF294B4FF48B70598043E74A462949D4
:103C100040460AF0FFFC044680B9384609F00AFD28
:103C2000431E9BB2FE2B3FF666AF1F4B5979C0B2C5
:103C3000187140EA012140F217102BE74A461E494D
:103C400040460AF0E7FC044608B11C4954E73846F0
:103C500009F0F0FC431E9BB2FE2B3FF64CAF124B1B
:103C60001979587141EA002189B2E4E7B80A0020C5
:103C70004C230108C40A00205123010894150108AF
:103C8000AA680020012A0108142A0108442A010810
:103C90003C290108442901085E230108402201084B
:103CA0006323010869230108EC69002075230108DA
:103CB0007E2301088E230108A0230108C0230108E8
:103CC0000422394938460AF0A5FC00287CD108AA0C
:103CD0000221204605F0AEFDDFF8E490DFF8E4A015
:103CE000C9F8000009AA0321204605F0A3FD0AAA8D
:103CF000CAF800000421204605F09CFD2B4F0BAABA
:103D000005213860204605F095FD294C2060D9F842
:103D1000000009F08FFC5FFA80F9DAF8000009F082
:103D200089FC8246386809F085FC246807467CB126
:103D30000222204920460AF06DFC90B302221E495F
:103D400020460AF067FC00287FF4D5AE4FF0020849
:103D5000B9F1170F3FF6CFAE5FFA8AFABAF13B0F0F
:103D60003FF6C9AEFFB23B2F3FF6C5AE134C05F090
:103D70001FF9237D228B617DA07D94F90C40009773
:103D8000CDE90384CDE901A905F0C4F80446002873
:103D90003FF482AE672C3FF458AF682C7FF4AFAE8F
:103DA000A9E64FF00108D3E789230108D00A0020D3
:103DB000D40A0020482901084B290108EC69002099
:103DC000C40A0020CC0A00200422BA4938460AF06E
:103DD00021FC00287FF439AF08AA0221204605F013
:103DE00029FDB54FDFF858B3386009AA03212046F2
:103DF00005F020FD0AAACBF800000421204605F0BA
:103E000019FDDFF840830BAA0521C8F80000204601
:103E100005F010FDA94C2060D8F8000009F00AFC5C
:103E20008146206809F006FC3F68A54982460622C3
:103E300038460AF0EFFB002800F0F0800722A14985
:103E400038460AF0E7FB002800F0EC8009229E4982
:103E500038460AF0DFFB002800F0E78008229B4983
:103E600038460AF0D7FB002800F0E2800622984985
:103E700038460AF0CFFB002800F0DD800822954983
:103E800038460AF0C7FB002800F0D8800622924985
:103E900038460AF0BFFB00280BBF002468244FF00F
:103EA00007084FF00008DBF800708C4907223846FD
:103EB0000AF0B0FB002800F0C4800222884938468E
:103EC0000AF0A8FB002800F0BC800822854938468B
:103ED0000AF0A0FB002800F0D9800222824938466F
:103EE0000AF098FB002800F0D18005227F4938466F
:103EF0000AF090FB002800F0CB8002227C49384673
:103F00000AF088FB002800F0C38005227949384672
:103F10000AF080FB002800F0BD8002227649384676
:103F20000AF078FB002800F0B58003227349384678
:103F30000AF070FB002800F0AF800222704938467A
:103F40000AF068FB002800F0A78004226D4938467B
:103F50000AF060FB002800F0A18002226A4938467E
:103F60000AF058FB002800F099800422674938467F
:103F70000AF050FB002800F0938002226449384682
:103F80000AF048FB002800F08B8005226149384682
:103F90000AF040FB002800F0858002225E49384686
:103FA0000AF038FB00287DD009225C4938460AF027
:103FB00031FB002878D00222594938460AF02AFB02
:103FC000002871D00722574938460AF023FB002801
:103FD0006CD00222544938460AF01CFB002865D0F8
:103FE0000822524938460AF015FB002860D0022208
:103FF0004F4938460AF00EFB002859D008224D4997
:1040000038460AF007FB38B102224B4938460AF01D
:1040100001FB00287FF46FAD0C2713E04FF001087F
:10402000044640E74FF00208FAE74FF00308F7E7CD
:104030004FF00408F4E74FF00508F1E74FF00608E9
:10404000EEE70127002C7FF4A5AE5FFA89F909F1AC
:10405000FF331E2B3FF64FAD1FFA8AFAAAF5FA631B
:10406000642B3FF648AD04F0A3FF344B93F90C20CA
:104070000492DA7C03929A7C02925A7C01921B7C15
:10408000009352464346494638467DE60227D9E723
:104090000327D7E70427D5E70527D3E70627D1E786
:1040A0000727CFE70827CDE70927CBE70A27C9E786
:1040B0000B27C7E7651C0108C40A0020D40A0020AA
:1040C0004E290108552901085D29010867290108C1
:1040D000702901087729010880290108872901082A
:1040E0008F290108922901089B2901089E290108AE
:1040F000A4290108A7290108AD290108B029010850
:10410000B4290108B7290108BC290108BF29010801
:10411000C4290108C7290108CE290108D1290108AD
:10412000DB290108DE290108E6290108E92901083F
:10413000F2290108F5290108FE290108EC6900208F
:10414000CC0A0020D00A002037B50546104602AA46
:10415000002442F8044D012105F06CFB90F9003079
:10416000702B03D1013009F069FAC4B2204603F084
:10417000C3FF28B923462246034928460AF006FA17
:10418000002003B030BD00BFF02701082DE9FF413A
:104190009046002302AA012107464046CDE902339A
:1041A00005F048FB029E224D224928603246044613
:1041B0000AF030FA002833D032461F4920460AF070
:1041C00029FA78B332461D4920460AF023FA58B33B
:1041D00032461B4920460AF01DFA002814BF00266B
:1041E000042603AA0221404605F024FB90F9003082
:1041F000702B1BD1013009F021FAC4B221463046A0
:1042000003F0F2FE40B9029B2A680E49D054009494
:10421000234638460AF0BAF9002004B0BDE8F08120
:104220000126DEE70226DCE70326DAE70024E5E7DD
:10423000B40A0020F4200108012101080E21010820
:1042400017210108202101082DE9F04F9BB01546E8
:1042500011AE14AF002483460AAA01212846CDE9F5
:104260000A44CDE90C44CDE90E44109411947460D5
:10427000348114947C603C81CDE91744ADF86440EE
:1042800005F0D8FA90F90030502B03D1013009F035
:10429000D5F9C4B20BAA0221284605F0CBFA0B9A35
:1042A000014630460AF0C8F93046FDF77BFF0CAAFC
:1042B000C3B203212846079305F0BCFA90F90030F9
:1042C000702B64D1013009F0B9F95FFA80F90DAAB9
:1042D0000421284605F0AEFA0D9A014638460AF048
:1042E000ABF93846FDF75EFF0EAAC3B2052128469A
:1042F000089305F09FFADDF8388028494246824647
:104300000AF088F9002845D04246254950460AF06F
:1043100081F9002840D04246224950460AF07AF9F5
:10432000002814BF002302234246514617A80993D0
:104330000AF082F90FAA0621284605F07BFA09F057
:104340007DF910AA07218046284605F073FA09F086
:1043500075F90022099B0093CDE902020546CDF8CC
:104360000480089B07994A46204601F081FA50B91B
:10437000CDE90385CDE901970096234617AA0A499E
:1043800058460AF003F900201BB0BDE8F08F4FF04B
:1043900000099CE70346C7E70123C5E73828010861
:1043A000402801084928010857280108F7B5264D7B
:1043B0002A78012A044644D905F006F907462A78E6
:1043C0002249234D20460AF0E1F82046FBF71AFF68
:1043D00095F800C04FF0FF3682B232236046214686
:1043E000009605F097F81B4920460AF00BF9204685
:1043F000FBF708FF95F800C0009682B232232146F1
:10440000604605F087F82878FDF786FC2878FDF7E8
:104410003FFD022F0ED1104920460AF0F3F8204646
:10442000FBF7F0FE2D78009682B232232146284613
:1044300005F070F8094920460AF0E4F8002003B0BE
:10444000F0BD0027BBE700BF24000020F8250108CD
:10445000B00200201126010824260108103F01089F
:1044600008B50020FDF776FD002008BD2DE9F04FCE
:104470004A4E4B4F8FB0914600212722044604A894
:1044800009F043F90025324601214846CDE901559E
:10449000ADF80C5005F0CEF93268014601A80AF0DB
:1044A000CBF80A2606FB057101A8FBF7A1FE20B395
:1044B00001350A2DF6D101273A4E3B49DFF8ECA031
:1044C0000225204635700AF09DF8384A29464846AC
:1044D00005F0B0F9364B4FF0000B18609846D8F84D
:1044E000001061B9084696F90030022B32D13149EB
:1044F00001AA20460AF04AF837E00746DCE7DAF876
:10450000005004A82A460AF097F80EAB1D4404A8F0
:1045100005F828BCFDF746FE00283BDB01A9C0B228
:10452000FDF7FCFE0028DED196F90050022D03DDD8
:10453000214920460AF04AF804A920460AF046F824
:10454000691C49B252464846317005F073F9C8F803
:104550000000C4E778B901AA5FB1184904A80AF0BD
:1045600015F804A920460AF031F800200FB0BDE884
:10457000F08F1349F2E7062802D101AA1149B8E7E2
:10458000072802D101AA1049B3E70828EDD101AAF2
:104590000E49AEE704AA0E49ABE700BFE40A0020CB
:1045A00092060020AB0A002030240108D80A00201F
:1045B000AC0A00203D2401083A24010869240108BE
:1045C00083240108A2240108DF2401081225010820
:1045D0005025010870B5174E174C012105461046AD
:1045E000324605F027F93368144E2060092BC4BF0A
:1045F0000023437201463078FDF730FE38B9236856
:1046000032780F49284609F0C1FF002070BD062806
:1046100005D122680B49284609F0B8FFF5E70728BD
:1046200002D122680849F6E70828EED12268074936
:10463000F1E700BFE00A0020B00A0020A80800202F
:104640008A260108A2240108DF2401081225010896
:104650002DE9F743474C17460546224601213846C7
:1046600005F0E8F818BB444B44491A78284609F08D
:104670008DFF434B2846196809F0A8FF2846FBF731
:10468000C1FD404B1C784FF0FF3382B200932946A6
:104690003223204604F03EFF3B4B3C4A1A603C4B21
:1046A00001220A201A7004F0FEFFFEF78FFC226838
:1046B000384909F0AFFF044638B13749284609F0B8
:1046C000A1FF002003B0BDE8F083344ADFF8E0909A
:1046D0000221384605F0AEF8314AC9F8000003213E
:1046E000384605F0A7F82F4F3860D9F8000090F948
:1046F0000020232A2BD1013008F0A0FF5FFA80F8B8
:10470000386890F90030702B23D1013008F096FF03
:10471000C6B2194FDFF86C903B7843454FF000026A
:1047200019D0214B1A70214B01221A2140461E70CC
:1047300001F07AF8642004F0B6FF99F80020387888
:104740003346414602F0DCFC682CBAD1B5E7682458
:10475000D6E76824DDE7114600921923304600F0C1
:104760004DFE642004F09FFF397899F8002033460D
:104770000846E7E7DC0A0020A808002064210108B9
:104780005C000020B0020020F07F0020EFBEADDE14
:104790002A0700208421010840220108E80A00209D
:1047A000EC0A0020C80A0020AA6800206C0700203C
:1047B000C00A002008B5114B1A78114B0A21514349
:1047C000595C99B90F4909F0E1FE01224FF480616B
:1047D0000D4807F0ABFEC82004F065FF00224FF43F
:1047E0008061094807F0A2FE002008BD02EB8201AB
:1047F00003EB4103054909F0C9FEE6E7A8080020DC
:104800009A070020FC260108000402401027010836
:1048100008B5044909F0F6FE403006F0EFFB002031
:1048200008BD00BF3C27010808B5044909F0EAFEAD
:104830004F3006F09DFB002008BD00BF9027010807
:10484000F7B51646054600246A4601213046CDE9F3
:10485000004404F0EFFF90F90030702B14D10130C8
:1048600008F0ECFEC7B201AA0221304604F0E2FFD4
:1048700008F0E4FE682C064608D10A49284609F0EB
:10488000C1FE002003B0F0BD6824ECE701463846C5
:1048900004F038FE3B4632460349284609F076FECE
:1048A000EFE700BFF02801080329010813B5002332
:1048B000009304460023104601216A46019304F048
:1048C000B9FF0378323B012B11D808F0B7FE01A9DC
:1048D000C0B203F0D9FE0198FBF756FE02460B4624
:1048E0002046054909F052FE002002B010BD0349E0
:1048F000204609F087FEF7E720200108E81F01089D
:104900001FB5044604F054FB14494B7B182B0CD103
:10491000C8894B7C8A7C0190097C00912046104913
:1049200009F034FE002004B010BD0C2BFAD1CB7C72
:10493000012B0CD14B7C8A7C0A480290C8890190DB
:10494000097C00912046084909F020FEEAE7022B85
:10495000E8D14B7C8A7C0548EFE700BFEC6900207A
:1049600070390108BF39010896390108C2390108B8
:104970007047000008B5354804F0DCFE344804F008
:10498000D9FE344804F0D6FE334804F0D3FE334851
:1049900004F0D0FE324804F0CDFE324804F0CAFEE6
:1049A000314804F0C7FE314804F0C4FE304804F03A
:1049B000C1FE304804F0BEFE2F4804F0BBFE2F4875
:1049C00004F0B8FE2E4804F0B5FE2E4804F0B2FE06
:1049D0002D4804F0AFFE2D4804F0ACFE2C4804F046
:1049E000A9FE2C4804F0A6FE2B4804F0A3FE2B4899
:1049F00004F0A0FE2A4804F09DFE2A4804F09AFE26
:104A0000294804F097FE294804F094FE284804F051
:104A100091FE284804F08EFE274804F08BFE2748BC
:104A200004F088FE264804F085FE264804F082FE45
:104A3000254804F07FFE254804F07CFE244B232209
:104A40001A7002F0C8FCFFF793FF08BDE0270108C9
:104A5000802701082C270108882101080C23010860
:104A600028280108A426010874250108902C0108B3
:104A700068260108E02801085421010818280108C7
:104A8000F82A01082024010890220108C8390108E9
:104A9000FC2101082C290108303A0108E825010809
:104AA0003C230108802C0108E4200108EC260108C1
:104AB000FC220108D4210108103A010860390108DC
:104AC00000200108642001089C2001081020010832
:104AD000A86800202DE9F041904607460E4602F0F6
:104AE0007BFC0F4D2A5C012A044601D9032A14D10C
:104AF000204602F0AFFD631E0A4A42F823600222FC
:104B00002A55094A002442F8234038464246314695
:104B100002F016FF2046BDE8F0811720FBE700BF3A
:104B20002A090020CC0F0020B40F0020194A86B0BB
:104B30000023126800931168009152680092009A55
:104B4000154A019312681168019152680192019A05
:104B5000124A029312681168029152680292029AF4
:104B60000F4A039312681168039152680392039AE3
:104B70000C4A049312681168049152680492049AD2
:104B80000593094B1B681A6805925B680593059BA2
:104B900006B07047AC690020886A0020B468002025
:104BA000486A00206C690020086A002070B58EB049
:104BB0000326604B0193009600234FF4A0725E49D8
:104BC0005E485F4D05F07AFC5E4B5F495F48CDE97A
:104BD00000634FF4A072002305F070FC5C4B5D494C
:104BE0005D48CDE900634FF4A072002305F066FC38
:104BF000FFF7C0FE594B5A495A48CDE900634FF4BC
:104C0000A072002305F05AFC0424574B0193009432
:104C100001234FF4A0725549284605F04FFC544B30
:104C20005449CDE900434FF4A0720223284605F011
:104C300045FC514B5149CDE900434FF4A072334636
:104C4000284605F03BFC4E4B4E494F4ECDE9004304
:104C50004FF4A0722346284605F030FC4B4B4C49DC
:104C6000CDE900434FF4A0720523284605F026FC49
:104C7000484B49494FF4A072CDE90043284606232A
:104C800005F01CFC0EA8002440F8304D012104F072
:104C900020FD70600EA8012140F82C4D04F019FD94
:104CA0003E4D68600EA8012140F8284D04F011FD2A
:104CB000B0600EA8012140F8244D04F00AFDA86060
:104CC0000EA8012140F8204D04F003FDF0600EA86D
:104CD000012140F81C4D04F0FCFCE8600EA8012105
:104CE00040F8184D04F0F5FC30610EA8012140F8A1
:104CF000144D04F0EEFC28610EA8012140F8104D7F
:104D000004F0E7FC70610EA8012140F80C4D04F09E
:104D1000E0FC68610EA8012140F8084D04F0D9FCC0
:104D2000B0610EA8012140F8044D04F0D2FCA86146
:104D30000EB070BD30100020403A01081951000833
:104D4000615D0008FC0F00204C3A0108095A000878
:104D50002C100020583A01082DD60008041100201C
:104D6000613A0108812C000800100020693A01080E
:104D700004100020733A0108081000207D3A010851
:104D80000C100020873A0108506B00201010002002
:104D9000913A0108141000209B3A0108306B002062
:104DA0002DE9F74FCA4C2368032B40F08E81002376
:104DB00023602371C74D20236371C74EDFF854A3CE
:104DC00000274FF000034FF003083370C146642002
:104DD0008AF8009004F082F963799AF800209A42E8
:104DE00008D032788AF80030511C3170BB4984F801
:104DF00005808B549AF80020237912F0DF0F24D01D
:104E00005A1E012AE3D8012B71D1B549B548B64ADB
:104E10000B708946B5490770177080469346B44BAE
:104E20009BF800001B78984240F0DC80DFF8DC82C1
:104E3000DFF8B892277117702F702B783F2B40F254
:104E4000FE8040220021A9484FE0002BDBD1A34A7D
:104E5000337013785B2B114679D1A64B4FF00A0CB7
:104E600093F80080012311F80390B9FBFCF00CFBD0
:104E70001090C0B203F1020E40455FFA8EFE64D17D
:104E80000133DBB2D05CB0FBFCF20CFB120C9A4A93
:104E900082F800C0CA5C01335D2ADBB2FAD1974ABE
:104EA0003370012010701944C3F11402944808F0C3
:104EB00021FC914B93491A780A70C2EB0211924A75
:104EC0000A4403F10C0153F8040B42F8040B8B4223
:104ED000F9D1198811809B789370002114227F48A2
:104EE00008F013FC84481422002108F00EFC2379FA
:104EF000022B7FF466AF7A4FDFF8EC91794EDFF842
:104F0000F0B1DFF8E8A1012200233A707E4A337045
:104F100089F80030C84698F800109BF80030994294
:104F200040F09A800023794F89F800302679002ECE
:104F300040F0B680314640226C4808F0E6FBC022C3
:104F40003146734808F0E1FB37E773468BE7232BC4
:104F5000694919D192F801C00A20BCFBF0F300FBAB
:104F600013C301F8013B02233370644B0120187016
:104F7000901C02F1120350F8042B41F8042B9842C4
:104F8000F9D103880B8094E73D2B92D192F801C0B0
:104F90000A23BCFBF3F003FB10C0DFF858C18CF808
:104FA000000092F802C0BCFBF3F003FB10C0DFF876
:104FB00040C18CF8000092F803C0BCFBF3F003FB87
:104FC00010C301F8013B042333704C4B01201870CF
:104FD000101D02F1140350F8042B41F8042B9842E1
:104FE000F9D166E79BF8003099F800C00192464A73
:104FF0000091C3EB03130CF10100134489F8000086
:1050000098F8000013F80C300B5400F1010E012049
:1050100088F800E006F0F4FA98F800300099019A58
:105020000B4413F8013C13F0DF0FDBD19BF8003089
:1050300001338BF80030012389F80030EFE608EBEC
:105040000302012019F8033082F8803106F0D8FA03
:105050002B7801332B70F0E6387898F80030009206
:10506000411CC3EB03131344397031781B5C0AF8FD
:10507000013001F1010C012086F800C006F0C0FAF1
:105080003378009A534413F8013C13F0DF0FE3D157
:1050900098F80030013388F8003001233B703AE77C
:1050A0000023124E2B702B783F2B03D9206806F07B
:1050B000A7FA3BE7FA18C820F35C82F8803104F0C5
:1050C0000DF82B7801332B70EDE703B0BDE8F08FBE
:1050D000840200202D6B00204D6B002074100020F6
:1050E0006D6B0020706B00204E6B00203410002090
:1050F0006C6B00206E6B0020181000204C6B0020A1
:10510000191000206F6B002088100020F60A002084
:10511000760C00202C6B002008B51E4D1E4C1F4E37
:105120002A78022A26D0032A2CD0012A0FD1204621
:105130004FF4806107F0FAF9C82004F0B4FA0022B5
:105140004FF48061204607F0F1F900232B7003F043
:1051500005FCFDF7F9FEFFF723FE114B1B780BB999
:10516000104A13704FF080533360BFF34F8FBFF37B
:105170006F8FD5E7204601224FF4806107F0D6F902
:105180006420DAE7204601224FF4806107F0CEF96F
:105190001E20D2E72A0700200004024004ED00E0B0
:1051A0001D1A00201B1A0020044B42F210721B68CB
:1051B000B3FBF2F3024A1360704700BF980000206F
:1051C0000011002070B50F4B0F4D1C682E684FF476
:1051D0007A70B4FBF0F405F039FB0C4B1B685B01F3
:1051E00048BF2B6804F1FF3448BFE41A084B58BF8E
:1051F000A41B1B68B4FBF3F448BF01300A2303FB74
:10520000004070BD9800002018E000E004ED00E0D0
:105210000011002010B506F099F9044602F0F4F9E7
:105220002046BDE8104002F05DBB00002DE9FF41C3
:1052300005468DF80F3018469DF8283098420E46E6
:10524000144604D14E4B02221A54672013E0002862
:10525000FBD0002BF9D0ADBB04F048F907469DF810
:10526000280004F043F9012201463846FFF732FCDA
:10527000172803D1172004B0BDE8F081414B0093FB
:105280004FF47A7000FB04F10DF10F030022B1FB23
:10529000F0F13D4805F0F2FF9DF80F303B4A013B2D
:1052A000044642F82360002C67D005F0C9FA4FF09D
:1052B000FF330093024600230121204606F002F846
:1052C0000020D8E7012D16D1184604F00FF9074643
:1052D0009DF80F0004F00AF92A4601463846FFF708
:1052E000F9FB1728C6D0274B00934FF47A7000FBC8
:1052F00004F10AABCAE7022DA7D104F0F7F805467E
:105300009DF8280004F0F2F8012201462846FFF734
:10531000E1FB1728AED04FF47A711A4F00970022A4
:105320004C430DF10F03B4FBF1F41748174D214620
:1053300005F0A4FF9DF80F309DF82800013B45F8CB
:10534000236004F0D3F880469DF80F0004F0CEF8F7
:10535000012201464046FFF7BDFB17288AD00AAB61
:10536000214600970022084805F088FF9DF8283064
:10537000013B044645F8236095E720467BE700BFE4
:105380002A09002015520008A53A0108E40F002060
:105390000138052824D8DFE800F0030A0F14191E8D
:1053A0000023104802221946006805F0AFBE002312
:1053B000022219460C48F7E70023022219460B483F
:1053C000F2E70023022219460948EDE700230222F2
:1053D00019460848E8E70023022219460648E3E791
:1053E000704700BF001000200410002008100020AB
:1053F0000C10002010100020141000202DE9F04F98
:1054000089B0884604921F46BDF84850039030B9D1
:1054100013460233DBB2012B05D967200AE111B133
:10542000049B002BF9D0002005F05CF9B74E0590E5
:105430000521002005F064F9482333705A23737066
:10544000039B002B47D1B8F1000F40F05A81049B19
:105450000233DBB2012B00F25081013DAC4BAD4871
:105460005C5DAD4B3821224601FB053108F042F965
:1054700004F103094A46A549A848B47008F03AF96E
:105480004946A64802F09EFA382206F80900002193
:10549000A24808F03AF9049B0233DBB2012BA5B213
:1054A0009F4C40F2F4802C3F012F9E4F00F2E98088
:1054B0002A1D322392B29549039804F06BF8002319
:1054C0003B7023700020059905F01AF9964B0222D3
:1054D0001A700020AEE0002FBFD0B8F1000F02D14B
:1054E000924B93F80080924A049BF37053781079A2
:1054F000127886F804809B00FF2F4FF0000143EAEA
:10550000001343EA02038CBF01220A4643EA420326
:1055100088BF3A0ADBB286BFF2714FF0010B8B46AF
:105520002E2DB1707371B77138D8824B82491B88A8
:105530000BF107002A46194430442C1D08F0DAF814
:105540005C44E4B27D4B1B78002B91D07C4B93F8EC
:105550000090B9F1FF0F00F0FF80012303FA09F971
:105560006A49784BDFF8E8C193F800A0002213469F
:105570005944924553D10BF107022A441A441D4461
:105580002B2DB35455DC7048017832440131C9B237
:1055900002340170517053FA84F4EAE063F07F033F
:1055A00073716A4B1D8099460BF10703F3180024B1
:1055B0002E250693B9F800A0BAF1000FC2D0BAFBAD
:1055C000F5F39BB2ABB13B46049A00954146039874
:1055D000FFF714FF0A2004F066F8B9F80030554AC6
:1055E0005B1BA9F8003013882B441380AA4655464C
:1055F000E0E7504C727921884F48079302F07F0210
:10560000727101445246069808F074F8079B238093
:105610000AF104045C44A9F80030E4B2E7E73CF87E
:10562000120010EA090F0ED00133DBB258192C28F2
:1056300003DD692009B0BDE8F08FC818284402F1E5
:10564000010E80F806E0013293E732232A462F4903
:10565000039803F09FFFC82004F025F83B78002B47
:105660007FF42DAF23782BB132232A4627490398A4
:1056700003F090FF0136B8F80620F3B29342E4D36A
:105680001DE704350026DFF8A880ADB2F3E727B99F
:10569000B8F1000F01D196F80480DFF8B890DFF878
:1056A0008CA04046DFF86480FCF7F4F900239AF8F8
:1056B0000020013A5F1C39F8122042FA03F3DB079D
:1056C000F8B211D52E1DB6B232233246414603F050
:1056D00061FFC82003F0E7FF23782BB13223324665
:1056E0004146039803F056FF00230A20237003F07D
:1056F000F5FC062F3B46DAD1E4E6002F3FF4ADAED1
:10570000EEE6002F3FF4A9AEEDE600BF2E07002025
:1057100066070020310700203E0500207C0F002096
:105720003C090020AC02002048090020A808002005
:10573000AA680020081100206C070020AD0200209C
:105740002500002024000020EE0400200A11002083
:10575000F6060020F00400202C2D3FF66AAF064A22
:10576000137806EB0B0101330D44DBB21370EB71C0
:105770000134E4B27CE600BFEE04002073B50B4BAD
:1057800000241C70421E38235343094AD55C094B40
:10579000064629461878FCF71BFA009623462A4647
:1057A0002146FFF72BFE204602B070BDAD0200205F
:1057B0003E050020A808002007B50246084800233F
:1057C00003700848FF2A0270009118BFFE22194694
:1057D0001846FFF713FE002003B05DF804FB00BF7E
:1057E000AD0200202500002037B51C460B4B0125DB
:1057F0001D700B4BFF291970134600940CBF0A460D
:10580000FE2201460020FFF7F9FD2246002105484F
:1058100007F07BFF002003B030BD00BFAD020020C9
:10582000250000206C070020F7B504460E4FFF2C22
:105830000E461546387810D02146FCF7C9F939785C
:10584000009522463346FFF7D9FD2A460021074836
:1058500007F05BFF002003B0F0BD13460A46214667
:10586000FFF7C2FFF6E700BFA80800206C07002082
:105870002DE9F04F91B0DDE91B6798469DF8743033
:105880000893330E0E93C6F307430A93C6F3072318
:105890000D933B0E0F93C7F307430B93C7F30723F7
:1058A0000C934C4B07901B789DF868A08B420D46DB
:1058B000914620D0484B320E1A700A9A5A700D9AAF
:1058C0009A703A0E1A710B9A5A710C9A9A71089A38
:1058D00058721A731C210D222846DE70DF7183F87E
:1058E00008A083F80A8083F80B90FFF79DFF002043
:1058F00011B0BDE8F08F394CDFF8DCB041462846E6
:10590000FCF766F9207800283CD0617800295DD04A
:10591000FCF75EF9414609902846FCF759F92078D2
:10592000404555D014F8011CFCF752F90E9B8BF83A
:1059300000300A9B8BF801300D9B8BF802300F9BD7
:105940008BF804300B9B8BF805300C9B8BF80630E2
:10595000099B8BF809308BF80A00089B8BF80B30F9
:10596000414628468BF803608BF807708BF808A037
:10597000FCF72EF90C221B212078FFF755FF0A2097
:1059800003F091FE164B01349C42B7D1454504D03B
:1059900041462846FCF71CF98146079BCDF800904C
:1059A0003A4631465046FFF741FC089B002B9ED0FB
:1059B0000023CDE90333CDE90133CDF80090079BF7
:1059C0003A4631465046FBF757FE90E729469FE797
:1059D0004846ABE7A80800206C070020716B002048
:1059E0008B6B0020BFF34F8F0549064BCA6802F44A
:1059F000E0621343CB60BFF34F8F00BFFDE700BFF2
:105A000000ED00E00400FA052DE9F04FBA4F85B033
:105A1000BA4D0024631CDBB20293B94B04EB030BB9
:105A200098469BF80120012A00F25181C02000FB1A
:105A300004F31A460193B14BE65D02EB030A07EB50
:105A400004090022BF2E0CDC00F0A680AB5D482BC1
:105A500040F0D380AB195B785A2B40F0CE80A94B35
:105A60001E60002A40F08980A749DFF890820B6809
:105A700001330B60A34BA5491E68A54BBD2E40F01A
:105A8000C08095F8BF0018601B680A6003F1030925
:105A900006EB0903BF2B9F4AC8BFC03B13601368C6
:105AA0009E4200F0EA80019B06EB0301414480F234
:105AB000BC8099484A4607F01DFE1FFA89F19648B6
:105AC00001F080FF38231A460646002192480393CE
:105AD00007F01BFE8F4A039BD2F80090C02202FB06
