:020000040800F2
:10000000000003201996000869960008458B000837
:1000100069960008699600086996000800000000CB
:10002000000000000000000000000000519A0008DD
:100030006996000800000000B19A0008358B00089E
:100040006996000869960008699600086996000894
:100050006996000869960008699600086996000884
:100060006996000869960008699600086996000874
:100070006996000869960008699600086996000864
:100080006996000869960008699600086996000854
:100090006996000869960008699600086996000844
:1000A0006996000869960008699600086996000834
:1000B0006996000869960008699600086996000824
:1000C0006996000869960008699600086996000814
:1000D00069960008798B0008858B000869960008EE
:1000E00069960008699600086996000869960008F4
:1000F00069960008699600086996000869960008E4
:1001000069960008699600086996000869960008D3
:1001100069960008699600086996000869960008C3
:1001200069960008699600086996000869960008B3
:1001300069960008699600086996000869960008A3
:100140006996000869960008699600086996000893
:100150006996000869960008699600086996000883
:100160006996000869960008699600086996000873
:10017000699600086996000869960008000000006A
:100180006996000869960008699600086996000853
:100190006996000869960008699600086996000843
:0C01A0006996000869960008699600083E
:1001B00010B5054C237833B9044B13B10448AFF3A1
:1001C00000800123237010BD900200200000000079
:1001D0007412010808B5034B1BB103490348AFF380
:1001E000008008BD00000000940200207412010885
:1001F00010F8012B11F8013B012A28BF9A42F7D0D1
:10020000D01A7047034613F8012B002AFBD1181AA5
:1002100001387047000000000000000000000000EE
:1002200001F0FF01102A2BDB10F0070F08D010F8A7
:10023000013B013A8B422DD010F0070F42B3F6D1AB
:10024000F0B441EA012141EA014122F007047FF0C4
:1002500000070023F0E80256083C85EA010586EA1B
:10026000010685FA47F5A3FA87F586FA47F6A5FA57
:1002700087F68EB9EED1F0BC01F0FF0102F0070263
:1002800032B110F8013B013A83EA010313B1F8D10E
:100290000020704701387047002D06BF35460338EF
:1002A000073815F0010F07D1013015F4807F02BF28
:1002B000013015F4C03F0130F0BC0138704700BF79
:1002C00081F0004102E000BF83F0004330B54FEA07
:1002D00041044FEA430594EA050F08BF90EA020F74
:1002E0001FBF54EA000C55EA020C7FEA645C7FEA07
:1002F000655C00F0E2804FEA5454D4EB5555B8BF2A
:100300006D420CDD2C4480EA020281EA030382EA9A
:10031000000083EA010180EA020281EA0303362D2C
:1003200088BF30BD11F0004F4FEA01314FF4801CFF
:100330004CEA113102D0404261EB410113F0004F11
:100340004FEA03334CEA133302D0524263EB4303C8
:1003500094EA050F00F0A780A4F10104D5F1200E66
:100360000DDB02FA0EFC22FA05F2801841F10001C1
:1003700003FA0EF2801843FA05F359410EE0A5F195
:1003800020050EF1200E012A03FA0EFC28BF4CF0C6
:10039000020C43FA05F3C01851EBE37101F000457C
:1003A00007D54FF0000EDCF1000C7EEB00006EEB89
:1003B0000101B1F5801F1BD3B1F5001F0CD3490813
:1003C0005FEA30004FEA3C0C04F101044FEA44526A
:1003D00012F5800F80F09A80BCF1004F08BF5FEAF1
:1003E000500C50F1000041EB045141EA050130BDD1
:1003F0005FEA4C0C404141EB010111F4801FA4F174
:100400000104E9D191F0000F04BF01460020B1FAC8
:1004100081F308BF2033A3F10B03B3F120020CDA00
:100420000C3208DD02F1140CC2F10C0201FA0CF0DE
:1004300021FA02F10CE002F11402D8BFC2F1200C43
:1004400001FA02F120FA0CFCDCBF41EA0C019040F9
:10045000E41AA2BF01EB0451294330BD6FEA040442
:100460001F3C1CDA0C340EDC04F11404C4F120022D
:1004700020FA04F001FA02F340EA030021FA04F33F
:1004800045EA030130BDC4F10C04C4F1200220FA96
:1004900002F001FA04F340EA0300294630BD21FAD4
:1004A00004F0294630BD94F0000F83F4801306BF9A
:1004B00081F480110134013D4EE77FEA645C18BF8E
:1004C0007FEA655C29D094EA050F08BF90EA020F25
:1004D00005D054EA000C04BF1946104630BD91EA1D
:1004E000030F1EBF0021002030BD5FEA545C05D120
:1004F0004000494128BF41F0004130BD14F580045F
:100500003CBF01F5801130BD01F0004545F0FE41D2
:1005100041F470014FF0000030BD7FEA645C1ABF07
:10052000194610467FEA655C1CBF0B46024650EA3E
:10053000013406BF52EA033591EA030F41F400216A
:1005400030BD00BF90F0000F04BF0021704730B5F0
:100550004FF4806404F132044FF000054FF00001C5
:1005600050E700BF90F0000F04BF0021704730B586
:100570004FF4806404F1320410F0004548BF40425B
:100580004FF000013EE700BF42004FEAE2014FEAB0
:1005900031014FEA02701FBF12F07F4393F07F4F8B
:1005A00081F06051704732F07F4208BF704793F08E
:1005B0007F4F04BF41F40021704730B54FF46074A1
:1005C00001F0004521F000411CE700BF50EA0102A4
:1005D00008BF704730B54FF000050AE050EA01024D
:1005E00008BF704730B511F0004502D5404261EBBD
:1005F00041014FF4806404F132045FEA915C3FF4FE
:10060000D8AE4FF003025FEADC0C18BF03325FEA9A
:10061000DC0C18BF033202EBDC02C2F1200300FA4B
:1006200003FC20FA02F001FA03FE40EA0E0021FA70
:1006300002F11444BDE600BF70B54FF0FF0C4CF45E
:10064000E06C1CEA11541DBF1CEA135594EA0C0F10
:1006500095EA0C0F00F0DEF82C4481EA030621EA4B
:100660004C5123EA4C5350EA013518BF52EA033586
:1006700041F4801143F4801338D0A0FB02CE4FF038
:100680000005E1FB02E506F00042E0FB03E54FF068
:100690000006E1FB03569CF0000F18BF4EF0010E60
:1006A000A4F1FF04B6F5007F64F5407404D25FEA5C
:1006B0004E0E6D4146EB060642EAC62141EA55510F
:1006C0004FEAC52040EA5E504FEACE2EB4F1FD0C51
:1006D00088BFBCF5E06F1ED8BEF1004F08BF5FEACF
:1006E000500E50F1000041EB045170BD06F0004681
:1006F00046EA010140EA020081EA0301B4EB5C042E
:10070000C2BFD4EB0C0541EA045170BD41F4801125
:100710004FF0000E013C00F3AB8014F1360FDEBF4A
:10072000002001F0004170BDC4F10004203C35DA26
:100730000C341BDC04F11404C4F1200500FA05F3A9
:1007400020FA04F001FA05F240EA020001F000424A
:1007500021F0004110EBD37021FA04F642EB0601C0
:100760005EEA430E08BF20EAD37070BDC4F10C04EA
:10077000C4F1200500FA04F320FA05F001FA04F2AE
:1007800040EA020001F0004110EBD37041F100019A
:100790005EEA430E08BF20EAD37070BDC4F12005A5
:1007A00000FA05F24EEA020E20FA04F301FA05F20D
:1007B00043EA020321FA04F001F0004121FA04F2B5
:1007C00020EA020000EBD3705EEA430E08BF20EA85
:1007D000D37070BD94F0000F0FD101F000464000BF
:1007E00041EB010111F4801F08BF013CF7D041EA41
:1007F000060195F0000F18BF704703F00046520045
:1008000043EB030313F4801F08BF013DF7D043EA15
:100810000603704794EA0C0F0CEA135518BF95EACB
:100820000C0F0CD050EA410618BF52EA4306D1D152
:1008300081EA030101F000414FF0000070BD50EA71
:10084000410606BF1046194652EA430619D094EAFB
:100850000C0F02D150EA013613D195EA0C0F05D1E5
:1008600052EA03361CBF104619460AD181EA030139
:1008700001F0004141F0FE4141F470014FF00000F1
:1008800070BD41F0FE4141F4780170BD70B54FF08C
:10089000FF0C4CF4E06C1CEA11541DBF1CEA13550C
:1008A00094EA0C0F95EA0C0F00F0A7F8A4EB0504EE
:1008B00081EA030E52EA03354FEA013100F08880E5
:1008C0004FEA03334FF0805545EA131343EA1263AE
:1008D0004FEA022245EA111545EA10654FEA002663
:1008E0000EF000419D4208BF964244F1FD0404F51C
:1008F000407402D25B084FEA3202B61A65EB030578
:100900005B084FEA32024FF480104FF4002CB6EB34
:10091000020E75EB030E22BFB61A754640EA0C00B4
:100920005B084FEA3202B6EB020E75EB030E22BFF4
:10093000B61A754640EA5C005B084FEA3202B6EB35
:10094000020E75EB030E22BFB61A754640EA9C00F4
:100950005B084FEA3202B6EB020E75EB030E22BFC4
:10096000B61A754640EADC0055EA060E18D04FEA82
:10097000051545EA16754FEA06164FEAC30343EA22
:1009800052734FEAC2025FEA1C1CC0D111F4801FEF
:100990000BD141EA00014FF000004FF0004CB6E7E8
:1009A00011F4801F04BF01430020B4F1FD0C88BF87
:1009B000BCF5E06F3FF6AFAEB5EB030C04BFB6EB92
:1009C000020C5FEA500C50F1000041EB045170BD85
:1009D0000EF0004E4EEA113114EB5C04C2BFD4EBB2
:1009E0000C0541EA045170BD41F480114FF0000E36
:1009F000013C90E645EA060E8DE60CEA135594EAB2
:100A00000C0F08BF95EA0C0F3FF43BAF94EA0C0FB4
:100A10000AD150EA01347FF434AF95EA0C0F7FF429
:100A200025AF104619462CE795EA0C0F06D152EA7D
:100A300003353FF4FDAE1046194622E750EA410661
:100A400018BF52EA43067FF4C5AE50EA41047FF472
:100A50000DAF52EA43057FF4EBAE12E74FF0FF3CD7
:100A600006E000BF4FF0010C02E000BF4FF0010CA8
:100A70004DF804CD4FEA410C7FEA6C5C4FEA430C21
:100A800018BF7FEA6C5C1BD001B050EA410C0CBF70
:100A900052EA430C91EA030F02BF90EA020F0020D2
:100AA000704710F1000F91EA030F58BF994208BF39
:100AB00090422CBFD8176FEAE37040F001007047F6
:100AC0004FEA410C7FEA6C5C02D150EA013C07D14D
:100AD0004FEA430C7FEA6C5CD6D152EA033CD3D098
:100AE0005DF8040B704700BF8446104662468C4692
:100AF0001946634600E000BF01B5FFF7B7FF0028C5
:100B000048BF10F1000F01BD4DF808EDFFF7F4FFED
:100B10000CBF012000205DF808FB00BF4DF808ED78
:100B2000FFF7EAFF34BF012000205DF808FB00BF9B
:100B30004DF808EDFFF7E0FF94BF012000205DF8BD
:100B400008FB00BF4DF808EDFFF7CEFF94BF012072
:100B500000205DF808FB00BF4DF808EDFFF7C4FF6B
:100B600034BF012000205DF808FB00BF4FEA410CB4
:100B70007FEA6C5C02D150EA013C0AD14FEA430C97
:100B80007FEA6C5C02D152EA033C02D14FF00000D4
:100B900070474FF0010070474FEA410212F5001212
:100BA00015D211D56FF47873B3EB625212D94FEAB4
:100BB000C12343F0004343EA505311F0004F23FA9E
:100BC00002F018BF404270474FF00000704750EAF3
:100BD000013005D111F0004008BF6FF000407047B0
:100BE0004FF00000704700BF4A0011D212F500120A
:100BF00011D20DD56FF47873B3EB62520ED44FEA75
:100C0000C12343F0004343EA505323FA02F07047F4
:100C10004FF00000704750EA013002D14FF0FF3032
:100C200070474FF0000070474FEA4102B2F1E043D5
:100C300024BFB3F5001CDCF1FE5C0DD901F0004CC3
:100C40004FEAC0024CEA5070B2F1004F40EB830013
:100C500008BF20F00100704711F0804F21D113F13F
:100C60003872BCBF01F00040704741F480114FEA78
:100C70005252C2F11802C2F1200C10FA0CF320FA01
:100C800002F018BF40F001004FEAC1234FEAD3231E
:100C900003FA0CFC40EA0C0023FA02F34FEA430388
:100CA000CCE77FEA625307D150EA01331EBF4FF011
:100CB000FE4040F44000704701F0004040F0FE402C
:100CC00040F40000704700BF53B94AB9002908BF7B
:100CD00000281CBF4FF0FF314FF0FF3000F072B919
:100CE000ADF1080C6DE904CE00F006F8DDF804E083
:100CF000DDE9022304B070472DE9F047089E044661
:100D00008846002B4BD18A42154667D9B2FA82F247
:100D10004AB1C2F1200701FA02F320FA07F7954021
:100D200047EA030894404FEA154E230CB8FBFEF740
:100D30001FFA85FC0EFB178843EA084307FB0CF1FA
:100D4000994209D9EB1807F1FF3080F01B819942D5
:100D500040F21881023F2B445B1AA4B2B3FBFEF0B1
:100D60000EFB103344EA034400FB0CFCA44509D9F4
:100D70002C1900F1FF3380F00781A44540F2048173
:100D800002382C4440EA0740A4EB0C0400271EB1B3
:100D9000D4400023C6E900433946BDE8F0878B42C2
:100DA00009D9002E00F0EB800027C6E90001384683
:100DB0003946BDE8F087B3FA83F7002F47D18B425D
:100DC00002D3824200F2FA80841A61EB030301200D
:100DD0009846002EE0D0C6E90048DDE702B9FFDE04
:100DE000B2FA82F2002A40F08F80491B4FEA154E7A
:100DF0001FFA85F80127B1FBFEFC230C0EFB1C112A
:100E000043EA014308FB0CF1994207D9EB180CF1B6
:100E1000FF3002D2994200F2CD808446591AA3B223
:100E2000B1FBFEF00EFB101443EA044408FB00F88B
:100E3000A04507D92C1900F1FF3302D2A04500F2DA
:100E4000B6801846A4EB080440EA0C409FE7C7F1BF
:100E5000200CBB4022FA0CFE4EEA030E01FA07F406
:100E600020FA0CF521FA0CF34FEA1E482543B3FB98
:100E7000F8F92C0C08FB19331FFA8EFA44EA0343E5
:100E800009FB0AF49C4202FA07F200FA07F10BD9B7
:100E90001EEB030309F1FF3080F087809C4240F293
:100EA0008480A9F1020973441B1BADB2B3FBF8F0B7
:100EB00008FB103345EA034400FB0AFAA24508D9AF
:100EC0001EEB040400F1FF336BD2A24569D902384E
:100ED000744440EA0940A0FB0289A4EB0A044C4593
:100EE000C2464B4654D351D0002E69D0B1EB0A050F
:100EF00064EB030404FA0CFCFD40FC404CEA0505DD
:100F0000C6E90054002747E7C2F1200320FA03F79F
:100F1000954001FA02F021FA03F34FEA154E3843E7
:100F2000010CB3FBFEF71FFA85F80EFB173341EAFD
:100F3000034107FB08F38B4204FA02F407D969184E
:100F400007F1FF3C2FD28B422DD9023F2944CB1A07
:100F500081B2B3FBFEF00EFB103341EA034100FB0C
:100F600008F38B4207D9691800F1FF3C17D28B4276
:100F700015D902382944C91A40EA07473BE73746E2
:100F8000304609E70746E7E61846FBE64145ABD29F
:100F9000B8EB020A69EB0E0201381346A4E760467B
:100FA000E9E7184695E76746D1E781467CE70238CE
:100FB0002C4447E7ACF1020C2B442FE7384608E7F6
:100FC0003746E9E6704700BF2DE9F04107460E4677
:100FD00090461C4608F09AFA30B901250A200AF01A
:100FE000FFFA2846BDE8F0810D4B214653F8270053
:100FF00008F07AFB0028F0D1344601250BE0384692
:1010000008F084FA214601220CF0EAF80546022095
:1010100001340AF0E5FAA31BDBB24345EFD3DDE769
:10102000EC6600201F4B1B88F7B59BB24FF6FF7292
:1010300093421D491D4A06D10123137000230B70F2
:10104000FA2003B0F0BD180A08BF0120107015780F
:10105000174F0B700220012300264FF00B0CAB4200
:1010600001D90020EDE75C1E8DF807600CFB04F44D
:101070009DF807200A2A02D90133DBB2EFE79DF879
:10108000072000F1006101F5EC312244098827F8BE
:1010900012109DF8072001320230D2B280B28DF8D2
:1010A0000720E5E700D801084C0F002024000020AD
:1010B000560900202DE9F0410B4FDFF83080012464
:1010C00000253B78A34202D22846BDE8F081611E8C
:1010D000661C08EB4101B0B206F010FC1A2C28BFC8
:1010E0000A25F4B2EDE700BF24000020F46C0020D4
:1010F0002DE9F74F0024DFF864A0DFF86490ADF825
:10110000064026469AF800305FFA84F8434503D239
:10111000002003B0BDE8F08F0A2707FB08970025E1
:1011200006F11C0B0BEB05000DF1060180B206F079
:10113000E5FBBDF8063007EB450253701B0A07F8C4
:1011400015300135052DEDD10A2303FB089805362E
:101150000023B6B288F809300134D3E72400002018
:101160003E0E00202DE9F74300201D4D1D4FADF828
:1011700006002B78C1B28B4284B200F1010626D85A
:1011800004F13207184EBFB24FF00009002504F1F8
:10119000990808EB05000DF1060180B206F0AEFBE0
:1011A000BDF8063006EB450253701B0A06F81530F1
:1011B0000135052DEDD10534A4B2BC4286F8099065
:1011C00006F10A06E2D1002003B0BDE8F083CB307F
:1011D00007EB410180B206F091FB3046C9E700BF42
:1011E000240000209A0D0020360D00202DE9F04348
:1011F00085B0002603A9E420ADF80C60ADF80E60C0
:1012000006F07CFB08B99DF80C6003A9E52006F008
:1012100075FB0DF10E010446E62006F06FFB002C75
:1012200068D128B9BDF80C30BDF80E4004EB03447A
:1012300003A9E72006F062FB0DF10E010546E82048
:1012400006F05CFB002D57D128B9BDF80C30BDF875
:101250000E5005EB034503A9E92006F04FFBDFF82C
:10126000AC9030B9BDF80C301A0A89F80020234A36
:10127000137003A9EA2006F041FBDFF8948030B92F
:10128000BDF80C301A0A88F800201D4A137003A913
:10129000EB2006F033FB1B4F28B9BDF80C301A0ABF
:1012A0003A70194A137099F8003043B1134A127812
:1012B0002AB1009221462A46304603F0CBFF98F827
:1012C000003043B10E4A12782AB1009221462A46D4
:1012D000304603F0BFFF3B7843B10B4A12782AB186
:1012E000009221462A46304603F0B4FF002005B0A4
:1012F000BDE8F08300249BE70025ACE7330D002018
:10130000340D002027100020350D0020251000206E
:101310002610002037B54FF48A7001A906F0EEFAC6
:10132000444C002861D1BDF8043023701B0A01A988
:101330004FF48E70637006F0E1FA00285AD1BDF8C0
:101340000430DA0B22715B0801A940F21510E3802A
:1013500006F0D4FA384C002851D1BDF8043023806F
:1013600001A94FF48B7006F0C9FA00284AD1BDF8E4
:101370000430638001A940F2171006F0BFFA00287C
:1013800043D1BDF8043023711B0A01A94FF48C70BE
:10139000637106F0B3FA0DF10601054640F219102B
:1013A00006F0ACFA002D35D1002833D1BDF8062067
:1013B000BDF8043043EA024301A94FF48D70A360E5
:1013C00006F09CFA00282ED1BDF8043023731B0AC6
:1013D000637301A940F21B1006F090FA38BBBDF808
:1013E0000430A376002003B030BD144B1A7822706D
:1013F0005B789CE7114B1A792271DB88A4E7104BCC
:101400001B88ACE70E4B5B88B3E70D4B1A79227152
:101410005B79BAE70B4B1B7813B14FF4E133CBE7A1
:10142000074B9B68C8E74FF4C053A381D1E7044B37
:101430009B7ED6E766640020A8650020000000209F
:1014400008000020B00200202DE9F04788B008AF66
:10145000002327F8023DDFF8C0900126B5B205F160
:101460003A00800080B2394606F048FA5FFA86F802
:101470008246002849D1BDF81E20130AB6EB131F7F
:1014800043D113F00F0340D006EBC604AD004C442B
:10149000ADB205F1E90063702272394680B206F000
:1014A0002DFABDF81E3063711A0A05F1EA00A27028
:1014B000394680B206F022FABDF81E30A3711A0A2E
:1014C00005F1EB00E270394680B206F017FABDF87C
:1014D0001E30E3711A0A22714146607806F0B8FCAA
:1014E000217AA378CDF814A0E2790492A27903922C
:1014F0006279029222790192E27800924046C1F329
:10150000400201F0010106F0A7FD0136082EA5D129
:10151000002008B0BDE8F087702000202DE9F84FCA
:1015200032200CF05FF80446002865D0344D2B784B
:10153000FE2B63D1334FDFF8D0804FF0000BBA465B
:1015400004F1140123462A1BD05C03F8010B8B42E3
:10155000FAD10BEB07091435631C4A4604F1150157
:1015600053F8040B42F8040B8B42F9D114220021EA
:1015700020460CF064F8002329788A1CD2B2012A94
:10158000DEB202D9322B18D11E46A31913F8013C42
:101590000BB10136F6B230460CF024F80AEB0B031F
:1015A0000146D86068B9142248460CF048F8204635
:1015B0000CF020F80E20BDE8F88FE154013501331E
:1015C000DAE7324621460CF02FF898F80030324620
:1015D00001330021204688F800300CF030F82B78D9
:1015E000FE2B04D10BF1140BBBF1640FA8D12046E4
:1015F0000CF000F80020DEE7FB20DCE7FF20DAE754
:1016000000DC010884660020F110002008B5FFF717
:1016100009FDFFF74FFDFFF76BFDFFF7A3FDFFF798
:10162000E5FDFFF777FEFFF70FFFBDE80840FFF786
:1016300075BF00002DE9F0410B4FDFF83080012429
:1016400000253B78A34202D22846BDE8F081631E04
:10165000661C38F8131011B1B0B206F077F91A2CE5
:1016600028BF0A25F4B2ECE724000020F46C002027
:101670002DE9F84F0026DFF85880144F35464FF01B
:101680000A0998F80020F3B29A4202D20020BDE87D
:10169000F88F09FB03F307EB030AFB5CA3B10024FB
:1016A00005F11C0B0AEB44021AF8143051780BEBCD
:1016B000040001EB032189B280B2013406F046F93F
:1016C000052CEFD10535ADB20136DAE73E0E00202C
:1016D0002400002070B50D460146E42014461E4645
:1016E00006F034F9C5F30F21E52006F02FF9A9B271
:1016F000E62006F02BF9C4F30F21E72006F026F9C7
:10170000A1B2E82006F022F99DF8101001EB0621A5
:1017100089B2E92006F01AF99DF814309DF81810E6
:1017200001EB032189B2EA2006F010F99DF81C3084
:101730009DF8201001EB032189B2EB2006F006F999
:10174000002070BD10B51F4C237861784FF48A706B
:1017500043EA411106F0FAF82379E1881A4C41EA8C
:10176000C33189B24FF48E7006F0F0F8218840F250
:10177000151006F0EBF861884FF48B7006F0E6F870
:10178000237B617940F2171043EA012106F0DEF86D
:1017900021894FF48C7006F0D9F8618940F2191054
:1017A00006F0D4F82379617B4FF48D7043EA012170
:1017B00006F0CCF8A17E40F21B1006F0C7F800201E
:1017C00010BD00BF66640020A86500202DE9F0412F
:1017D000342200210D480E4FDFF830800BF02FFF30
:1017E000012400253B78A34202D22846BDE8F081BF
:1017F000631E661C38F8131011B1B0B206F0A6F8DB
:101800001A2C28BF0A25F4B2ECE700BFF46C0020C4
:101810002400002038B5054C054D2368AB4203D0A9
:1018200006F0DCF800B9256038BD00BFF07F00206D
:10183000ADDEEFBE70B58EB00DF10E03009303AABE
:1018400006AB05A9012006F0DDF90DF1120304AA8B
:101850000EAD009307A908AB022006F0D3F9BDF83E
:101860000C3045F8143D0024294605980126CDE9A1
:101870000A640AF0BFFC02230B932946BDF812301C
:10188000089809930A940AF0B5FCBDF80C10059865
:1018900022460AF03BFE052007F042FCBDF812107C
:1018A00008980AF02DFE90B93246BDF80C10059844
:1018B0000AF02CFE052007F033FCBDF81210089842
:1018C0000AF01EFE831B584258410EB070BD2046E0
:1018D000FBE7000008B5044B9968FEF789FCB0FAF5
:1018E00080F0400908BD00BF8C0000202DE9F84FB2
:1018F0001D491E4FDFF87880DFF87890DFF878A078
:10190000DFF878B00546FEF773FC06240646FEB104
:1019100039462846FEF76CFCE0B141462846FEF702
:1019200067FCC8B149462846FEF762FCB0B1514693
:101930002846FEF75DFC98B159462846FEF758FC4C
:1019400080B1601E10F0FF04E1D12046BDE8F88FA1
:101950000120FBE70220F9E70320F7E70420F5E781
:101960000520F3E70620F1E7D1140108121C010855
:10197000C8140108CA140108CD140108D0140108C4
:1019800038B507F097FA07F023FB06F059F806F090
:10199000FFF805F0C3FC07F04FFB05F007FF07F069
:1019A0007DFB06F08FF970B1FFF734FFBFF34F8F67
:1019B0002E492F4BCA6802F4E0621343CB60BFF399
:1019C0004F8F00BFFDE7FFF735FF90B3294B2A4D3E
:1019D000322001241C7007F0A3FB05F003FC4FF438
:1019E000E132AA6020460134A968E4B207F09AFD0A
:1019F000072CF7D1FFF70AFE07F00BFE05F044FEB7
:101A00001E4B1F481C7801224FF48061BCB90AF0BC
:101A10007DFD4FF4FA7007F083FB00224FF48061E4
:101A200017480AF073FD03F09DF8164B01221A7057
:101A300038BD322007F074FB05F0D4FBDAE70AF07A
:101A400065FD4FF4FA7007F06BFB00224FF48061E4
:101A50000B480AF05BFD642007F062FB0848012296
:101A60004FF480610AF052FD6420D4E700ED00E0FD
:101A70000400FA05B0020020A86500204C0F0020E9
:101A800000040240AF02002008B509F07DFD05F01A
:101A9000EDF9FFF775FF03F0A5F8BDE8084007F082
:101AA000F3BD00002DE9F3410F4F104D0646012410
:101AB0004FF00308A6420FD03B886B701A0A2A70B9
:101AC0000022CDF800800A2311462046AC7003F0B6
:101AD000A9FC0A2007F0DDFD0134E4B2072CE9D1AE
:101AE000002002B0BDE8F08158000020100E002058
:101AF0002DE9F04F354B364D83B093F800C00CF113
:101B0000070303F4FC7300AFADEB030D00236C4639
:101B10001A46D9B28C4530D8013801232D4A2354B6
:101B200016252B4E7A6005FB00259E464FF00208D5
:101B300035F8131061B136F810905A1E0EFA02F201
:101B400042EA090204EBD10126F8102001F8018CC9
:101B50000133072BECD1DFF878E002210131C9B263
:101B60000023184601F1FF39DAB294450AD800285B
:101B7000F4D10C37BD46BDE8F08FE25425F81320B0
:101B80000133C6E7E25C4A451ED17A68162505FB9B
:101B9000032A4FEA430801253AF815208AB1D208F2
:101BA000013AA65C6EB94FF0010B6E1E0BFA06F6F9
:101BB00038F80EB0A15446EA0B06013028F80E6042
:101BC000C0B20135072DE7D10133CDE72400002055
:101BD000940B0020560900200B78F0B504463BB961
:101BE0000278094B1E78002318469E4202DCF0BDA5
:101BF000FF22F6E7E55C954203D2CF5C0FB9D8B27D
:101C00002A460133F1E700BF2400002010B5064B3F
:101C100002461C780123111A8C4201DC184610BDC3
:101C200012F8011B0B40F6E7240000202DE9F04FCD
:101C30008FB005468B463222002101A80BF0FFFC35
:101C40006E1E1A2200214648464C474F0BF0F7FC07
:101C50000023A355BB55454B162202FB0636012037
:101C600098461FFA8BF236F810306BB1B2EBD30FF7
:101C70000AD15C44012304F8013C394BC0B283F81B
:101C800000B00FB0BDE8F08F01300728EBD1384B22
:101C9000FF211A78002001239A4229DA00254FF00B
:101CA00001094FF0160A01A8FFF7B0FF38B901A9E2
:101CB0002C48FFF791FF0130C5B25D4526D1284978
:101CC00000237A1912F8010C5A1C00283ED1244D29
:101CD00001235C4436F8131000293CD014F8012C81
:101CE0002A4412F8012CB2EBD10F34D1D8B2C8E794
:101CF0009D421EBF04EB030C0CF8011C07EB030C08
:101D000003F1010318BF0CF8010CC5E7681E0EAB08
:101D100003440AFB008C03F8349C01213CF8113089
:101D200083B1C3F3C703013B0EAA1A4412F8342C43
:101D300042B9225C14F803E00132D2B2964584BF66
:101D4000E254FD5401310729E8D1ACE7DBB2CD54B0
:101D500013460546B5E70133072BBBD191E700BF1A
:101D60002D670020F10F00200B10002056090020E5
:101D7000240000202DE9F74F4F49DFF864814F4FD1
:101D800004464E480CF0D8FB4C48FEF73BFA4FF0A7
:101D9000FF3582B2009532234849204607F0CAFB3E
:101DA00001263246414638460CF08AFB3846FEF79B
:101DB00029FA013682B2009532233946204607F0CF
:101DC000B9FB072EEDD10095322303223C493B4D50
:101DD000204607F0AFFB00273A4B1B785FFA87F8E5
:101DE00043450BD84FF0FF3300930122322336498D
:101DF000204607F09FFB03B0BDE8F08F08F1010219
:101E00003249DFF8E0A0DFF8E0B028460CF058FBDC
:101E10002846FEF7F7F94FF0FF3682B200963223DC
:101E20002946204607F086FB1623294A03FB08F3C0
:101E300002EB0309D15A274B062000FB0131052292
:101E400028460CF093FB00963223052229462046B3
:101E500007F070FB0096322301221F49204607F04D
:101E600069FB012639F81620EAB9594628460CF0D4
:101E700027FB2846FEF7C6F94FF0FF3882B2CDF8AF
:101E80000080322329462046013607F053FB072EF7
:101E9000E8D1CDF80080322302221049204607F015
:101EA00049FB013798E702F007035146D20828465C
:101EB0000CF006FBDDE700BF9A1401087E0F00203E
:101EC000E71E01082400002097310108B114010821
:101ED00056090020E5140108AA140108E81E0108AB
:101EE000AC140108BD140108C01401082DE9F34722
:101EF0002949DFF8B080DFF8B090DFF8B0A00546E0
:101F000026480CF019FB2548FEF77CF94FF0FF330B
:101F1000009382B232232149284607F00BFB0124AB
:101F200098F80030A34212D21D491C480CF004FB63
:101F30001A48FEF767F94FF0FF33009382B232235D
:101F40001649284607F0F6FA02B0BDE8F087134EAE
:101F50000023621E5F1C39F812104FF4004242FA4F
:101F600003F3194211D03B462246514630460CF04D
:101F7000A7FA3046FEF746F94FF0FF33009382B2DE
:101F800032233146284607F0D5FA0A2F3B46E0D1E6
:101F90000134E4B2C4E700BF4C1401087E0F0020F6
:101FA0007A14010824000020F46C00206814010851
:101FB0002DE9F04F85B0804607F02EFC734F744931
:101FC000DFF820A2734DDFF8209204460CF0B4FA3B
:101FD0003A7871496F480CF073FA6E4920460CF05C
:101FE0008FFA6E4B6E491A786A480CF069FA6949A3
:101FF00020460CF085FA06230022009369496548C3
:1020000002230CF05DFA634920460CF079FA664A27
:10201000664960480CF054FA5E4920460CF070FAAC
:10202000634A64495B480CF04BFA5A4920460CF06D
:1020300067FA614957480CF07FFA564920460CF080
:102040005FFA01263246514628460CF039FA2946F5
:1020500020460CF055FA16F80930042B08D8DFE8B2
:1020600003F0037C7E808200544928460CF064FA19
:102070002946204601360CF043FA072EE2D150499A
:102080004448DFF86891DFF868A1DFF868B10CF028
:1020900053FA404920460CF033FA002560236B4385
:1020A00003EB090253F809306E1C002B5DD1324658
:1020B000444938480CF004FA364920460CF020FA1E
:1020C000062E3546EAD14049DFF82CA1DFF82CB1C5
:1020D000DFF8C09020460CF013FA3C4920460CF083
:1020E0000FFA2046FEF78EF8002305463A78013AAB
:1020F0005E1C3AF812104FF4004242FA03F3194200
:1021000008D05946324648460CF0DAF9494620468E
:102110000CF0F6F9062E3346E8D12046FEF772F8A9
:10212000ADB2A84203D12A4920460CF0E9F926496C
:1021300020460CF0E5F9B8F1000F0BD02046FEF771
:1021400061F84FF0FF33009382B2322321464046BC
:1021500007F0F0F905B0BDE8F08F1E4985E71E498C
:1021600083E71E4981E71E497FE7906B05F04CF835
:1021700003905AF8250005F047F8039B009032467B
:10218000594604480CF09CF996E700BF4C0F00201C
:10219000AB1401087E0F0020AE1201084D0900208B
:1021A000CA120108E6120108031301080F130108FF
:1021B000261301082F1301084813010861130108B1
:1021C000C2130108DA130108E81E010825140108EA
:1021D00047140108681301087D13010889130108D9
:1021E000A31301085B130108CE0F0020201E00205E
:1021F0007C160020F5130108F46C0020421401083D
:102200002DE9F04726490546FDF7F2FF18B9254BA1
:102210001878BDE8F08724492846FDF7E9FF002833
:102220003BD02F78232F17D0204BDFF888A093F8CE
:10223000008000264FF00A09F4B2A0451DD81C4FBB
:1022400000240A2606FB04712846FDF7D1FFF8B9E1
:10225000200240F0FE0008E0681C0BF089F9C0B2D3
:1022600028B1124B1B78834201D300B2D1E70D4B4A
:102270001B788342F9D06620CBE709FB06A12846EC
:10228000FDF7B6FF10B90FB120B2C2E70136D3E7B0
:1022900001340A2CD6D16420BBE7FF20B9E700BF88
:1022A000983401084C0F0020C414010824000020B9
:1022B000360D00203E0E00202DE9F843284F06463B
:1022C0000C46002507EB85012046FDF791FF00280D
:1022D0003FD00135042DF5D1224BDFF894901F78C3
:1022E00001254FF00A08AF421DDCDFF88880002589
:1022F0000A2707FB05812046FDF77AFF60B3013509
:102300000A2DF6D1184D194B2B602F689FB918482C
:1023100006EB8606214600EB46000CF00DF9BDE801
:10232000F843FFF7A5B908FB05912046FDF760FFCC
:1023300090B10135D7E73B68D3F800804046FDF700
:1023400061FF4146024620460CF0FEF830B17B6842
:10235000DAE70620BDE8F8830720FBE70820F9E765
:102360009E12010824000020D80F0020A4000020A5
:102370003E0E0020360D00202DE9F047354F054672
:102380000E4600244FF00A09B84609FB0471304696
:10239000FDF72EFF58B9013D2F4A012303FA04F43B
:1023A00032F815301C4322F81540BDE8F08701349F
:1023B0000A2CEAD1294F002407EB84013046FDF7AF
:1023C00017FF002840D00134042CF5D1244BDFF84E
:1023D0009CA01F7801244FF00A09A7421ADC214F64
:1023E000214B3B603C68ECB90A2303FB04F018F86E
:1023F00000202ABB314640440CF09EF8013D164AAD
:10240000012303FA04F432F815301C4322F8154076
:102410000020CAE709FB04A13046FDF7E9FEA8B198
:102420000134DAE72368D3F800904846FDF7EAFE66
:102430004946024630460CF087F848B16368D0E759
:1024400001340A2CD1D1D9E70620AEE70720ACE74A
:102450000820AAE7360D00209A0D00209E120108E0
:1024600024000020DC0F0020A40000203E0E0020ED
:1024700013B51E200BF0B6F81E22002104460BF007
:10248000DEF8094A108B937D117D0190527D0092F8
:102490000139064A204652F8212005490CF010F86F
:1024A000204602B010BD00BFA8650020401A0108F8
:1024B000D31401081FB5094B4FF0FF321B7801926E
:1024C0004FF0010CCDE9022C022200920A46194677
:1024D00003F0E2F905B05DF804FB00BF4C0F0020EB
:1024E000F0B587B0002507460E462B462A462946FA
:1024F000CDE90355CDE9015500952846FFF7EAF8E7
:102500006023791E59430C4A5458701E434354B1FA
:10251000D458384654B105F0FBF8304605F0F8F8C9
:10252000284607B0F0BDD35823B1304605F0F0F887
:102530002046F6E76820F4E7201E00202DE9F84F3A
:10254000214E224D34781427013C07FB0454814668
:10255000FDF758FED4F80CB08246BBF1000F29D02D
:102560005846FDF74FFE0AF10201804601445846E5
:102570000BF088FF3378E060013B07FB035308F161
:102580000102D868494610440BF0D6FF3378013B6E
:1025900007FB03531322DB6803F80820307814226A
:1025A000013802FB0050C16861B90BF048F80E20F9
:1025B000BDE8F88F01300BF015F84946E0600BF0EC
:1025C000BBFFEBE70020F3E7F1100020846600205A
:1025D00038B5451E15F8014F04B938BD0AF0F4FFAF
:1025E00020442346427802F00302012A08BF203328
:1025F0002B70EFE72DE9F04FBB4E96F80080B8F155
:10260000050F89B0834600F06D81DFF8FCA214212C
:1026100001FB08F202EB0A03002422F80A40C3F887
:102620000240017807936229574640F0FB80817889
:102630002E2940F0F7804578303DEDB2062D00F2AE
:1026400006814FF00109C41C22F80A90A7499D7029
:10265000072220460BF078FFE0B9079A0523D370D4
:10266000A34B05EBC50213441C7A14EA090404D0F9
:102670000024337801333370E9E0CDE90449CDE932
:102680000244CDE90044234622464946284605F047
:10269000E3FCEEE70E22974920460BF055FFA0B968
:1026A000079A0623D370924B05EBC50213441C7A9C
:1026B00014F00204DCD1CDE90449CDE90244CDE9AE
:1026C000004423464A462146E0E70C228A49204638
:1026D0000BF03AFF00284ED1854A05EBC5010A44AC
:1026E0009478ACB9079B0922DA700BF10F000AF05D
:1026F0003BFF3278142101FB02AAC3B28AF80430EE
:10270000CDE90449CDE90244CDE900442246DAE7A7
:10271000D478ACB9079B0A22DA700BF10F000AF0EB
:1027200023FF3378142202FB03AAC0B28AF8040004
:10273000CDE90449CDE90244CDE900042346E5E7AB
:102740001279002A6AD1142404FB08A80B2288F805
:1027500003200BF10F000AF007FF337804FB03A7F7
:10276000C0B2002401233871CDE90443CDE902440D
:1027700001900094E2E70D22604920460BF0E4FE50
:1027800000287FF475AF5A4AE9004819104444798B
:102790009CB9079B0C22DA700BF110000AF0E4FEE2
:1027A0003378142202FB03AAC0B28AF80400CDE9F0
:1027B0000449CDE902040194DBE78079A8B9142427
:1027C00004FB08A80D2288F803200BF110000AF082
:1027D000CBFE337804FB03A7C0B200240123387179
:1027E000CDE9044303900294E5E729440A44D479EF
:1027F000B4B94FF0140909FB08A80E2288F8032089
:102800000BF110000AF0B0FE337809FB03A7C0B249
:1028100001233871CDE904030394E4E70C2428E78D
:102820000D2426E7594636480BF086FE35493448D4
:102830000CF0E6FC3349054600200CF0E1FC314980
:10284000804600200CF0DCFC044625B967242046B5
:1028500009B0BDE8F08F2846FFF73CF8054660B1A7
:10286000B8F1000F0CD1002CF0D1337814225A4368
:10287000B9180220B854CD70FCE6B8F1000FE5D0CD
:10288000002CE3D02046FFF725F833784FF01409E9
:1028900009FB03F3FA18A8B10421F954D570D071DB
:1028A00034784046FFF722F81422337802FB047490
:1028B00002FB037760707A78002AC7D00133337047
:1028C0000024C4E70321F954D57020460AF049FEDC
:1028D00051EC100BFEF7A8F9337809FB0373C3F82A
:1028E0000600DDE70E24B2E7F11000209D2A010862
:1028F00070200020962A0108141C0108211C0108E0
:102900005A100020803E01088466002008B5034666
:10291000022B084614D0032B05D0012B0ED1BDE8A5
:102920000840FFF767BE084B084A1B781421013B9B
:1029300001FB032301221A7404F04EFB002008BDA2
:10294000BDE80840FFF7FABDF110002084660020C2
:102950002DE9F04F1C468BB00023CDE90401CDE9F1
:102960000733DFF820B38DF8243016463046FFF7E2
:102970002FFE9BF80070002F49D10322BF4930463B
:102980000BF0E2FD074600285BD1F01CFFF732FE9A
:10299000002835D0BA4920460BF0CEFD8BF80070E8
:1029A00000252046FDF72EFC237853B1059B43B14B
:1029B0004FF0FF33009382B232232146049806F091
:1029C000B9FD2046FDF71EFC0021024620460AF014
:1029D00036FE002DCAD1AB4B8DF824501B78CDE9C3
:1029E000075553B9059B43B14FF0FF33009338228D
:1029F0003223A549049806F09DFD0BB0BDE8F08F89
:102A000002238BF800300D2323700546C9E7062208
:102A10009E4930460BF098FD50B98BF800009C4958
:102A20000320FFF773FF9B4920460BF085FDB7E7B6
:102A3000022F06D13046FFF781FD0028E3D09049F0
:102A4000F2E72E2130460BF06AFD0746002800F021
:102A500010810322904903380BF076FD002800F026
:102A600008810AF0B1FD7B78184490F8019019F0C4
:102A7000040940F0FE80BA1B314607A80BF076FD32
:102A800007A8FFF7BDFB854B1B7803939842804650
:102A900006D14FF419722146781C06F057FEB4E7B0
:102AA000642801D17E49BFE7662801D17D49BBE793
:102AB000FF2807F101072BD149461A227A480AF06C
:102AC000BEFD3046FDF79EFB054607A8FDF79AFBC5
:102AD0006A1E121A394675480BF048FD3046FDF75C
:102AE00091FB054607A8FDF78DFB2B1A9BB24146CB
:102AF0001722039802F08CFE21464FF419723846D3
:102B000006F024FE6A49054620460BF0F9FC48E72A
:102B10005FFA80FABAF1FE0F40D1DFF8BCA1494656
:102B20001A22C0F3072860488AF800800AF087FD5F
:102B30003046FDF767FB814607A8FDF763FB09F107
:102B4000FF32121A394659480BF010FD3046FDF796
:102B500059FB814607A8FDF755FBA9EB00039BB283
:102B600017224146039802F053FE4C4B514A1B7802
:102B7000013B32F813309AF800201341DB0706D5E9
:102B80004FF419722146384606F0E0FD054607ABC2
:102B90002246494920460BF093FC02E706224749AA
:102BA000474D38460BF0D0FC814648BB0246192100
:102BB0002870504602F04CFE642006F06AFD414A3F
:102BC0003648127800784B46514604F0B1F92B781C
:102BD000602B7FF4E5AE4FF47A71012008F054FACF
:102BE000394B1B78002B3FF4DBAE384A3849138849
:102BF000013313802046434622460BF061FCCFE6AA
:102C00003046FDF7FFFA814607A8FDF7FBFA09F108
:102C1000FF32121A394625480BF0A8FC3046FDF762
:102C2000F1FA074607A8FDF7EDFA013F3F1ABAB2DD
:102C30001721504602F00CFE4246264920460BF072
:102C40003FFC237863B12046FDF7DCFA059B3BB1DE
:102C50000123009382B232232146049806F06AFCD5
:102C60002046FDF7CFFA0021024620460AF0E7FC95
:102C7000ADE74FF41972214630460EE75C1A0108A1
:102C8000601A010820110020DB1B0108B21A01089C
:102C9000AB140108B91A0108FA1A01084C0F0020F8
:102CA000FE1A0108251B0108C80B0020100E002089
:102CB0004A1B01089A0D0020671B0108931B01089D
:102CC000666400204D090020F00F00209E190020AE
:102CD000BB1B01089A1B0108F01000202DE9F043EE
:102CE00085B000234FF0FF3101208DF80F3008F040
:102CF000CBF906F091FD464B464D9B68B3F5612F2D
:102D000007460CD001242B78A34204D04FF4612154
:102D1000204606F007FC0134E4B2072CF3D13E4B09
:102D20003E4A29781B88127800913D493D4EDFF8D4
:102D30001081DFF81091062000FB03133A493B484D
:102D40000BF0BEFB0A234FF424723949287806F0B1
:102D500017FC3648FDF756FA0A2382B23349287821
:102D600006F00EFC00243278012A2DD1287800F1DB
:102D7000FF3C04A918F80C3001F8013D002308F8C5
:102D80000C3033700A2306F0FBFB9DF80F300D2B3F
:102D900023D10A2302222749287806F0F1FB1CB927
:102DA000254926480BF0C8FB3B46244A28780121D8
:102DB000FFF7CEFD214920480BF0BEFB3222002157
:102DC0001E480AF03CFC00244FF08053C9F8003044
:102DD000BFF34F8FBFF36F8FC5E70A2BF4D0082BDB
:102DE00001D07F2B08D1002CEED0013CE3B2134A76
:102DF00000215CB2D154E7E7A3F120025E2AE3D8B8
:102E0000312CDFBF0D4A1355013464B2DCE700BF3B
:102E1000A86500204D090020580000204C0F00201C
:102E2000E5140108550900202F1C0108F2100020AC
:102E30005A1C010896310108BE10002028100020FD
:102E40009E11002004ED00E0F8B5174B174A1B78DF
:102E50000F46013B142101FB0323DB680BB3144C29
:102E6000236803B920602568287808B92060F8BD78
:102E7000132128460BF053FB064640B1421B29465E
:102E8000384601360BF072FB26600120EFE7294639
:102E900038460BF051FB3846FDF7B4F92844206062
:102EA000F3E71846E3E700BFF11000208466002036
:102EB0001C11002030B514252E4A05FB00F15318D3
:102EC000515C012903D003290BD0002008E09A7837
:102ED0002949DB7802EBC202885CC31A5842584188
:102EE00030BDD9785B784C1E0C21614305FB002076
:102EF000224CD0F806206158013BD1ED007A07EE54
:102F0000102A052BE1D8DFE803F0030B1320282E4D
:102F1000F4EE477AF1EE10FA0CBF01200020DFE753
:102F2000F4EEC77AF1EE10FACCBF01200020D7E70B
:102F3000F4EEC77AF1EE10FAC7D5F5EE407AF1EE6D
:102F400010FA14BF01200020CAE7F4EEC77AF1EEB0
:102F500010FAACBF01200020C2E7F4EEC77AF1EE10
:102F600010FAEAD9B1E7F4EE477AF1EE10FAE4D1BB
:102F7000ABE700BF84660020702000208C0000209A
:102F80002DE9F84306F048FC194DDFF87080DFF8B2
:102F900070900646002498F80020A3B29A4202D806
:102FA0000020BDE8F8832B7C13B901341435F2E717
:102FB000E0B2FFF77FFF0028F7D00E4B0E4F202224
:102FC0001A703946E868FFF73FFF0028EDD03A460F
:102FD0003346002199F80000FFF7BAFC3046FDF7B0
:102FE00011F90021024630460AF029FBE9E700BF4B
:102FF00084660020666400208C100020F110002000
:103000004D090020BFF34F8F0549064BCA6802F4F3
:10301000E0621343CB60BFF34F8F00BFFDE700BFFB
:1030200000ED00E00400FA050020704708B5FFF746
:10303000E9FF000008B5034B03491A880BF040FA7A
:10304000002008BDCCF7FF1F4C22010813B502A9D0
:10305000002341F8043D04466846009305F090F9CA
:10306000694620460BF068FA0198FDF78DFA024692
:103070000B46204602490BF023FA002002B010BD97
:10308000A41F010813B502A9002341F8043D04461A
:103090006846009305F074F9694620460BF04CFA37
:1030A0000098FDF771FA02460B46204602490BF0E4
:1030B00007FA002002B010BD731F01087FB5164645
:1030C0000023CDE9013301AA002301210446304643
:1030D000039306F0A5FB054602AA3046022106F03E
:1030E0009FFB2B78323B012B06462DD828460AF051
:1030F0003FFA1649C5B23046FDF77AF820B11449B7
:103100003046FDF775F8D0B91049284605F0CAFADF
:1031100003AA0E49284605F0F7FA03A920460BF04A
:103120000BFADDED037A0B49FCEEE77A204617EE49
:10313000903A9AB20BF0C4F9002004B070BD064971
:1031400020460BF0F9F9F7E70449F9E7EB1E01080F
:10315000EF1E0108F61E0108061F0108181F0108CE
:103160002DE9F04F85B00023039301214823044645
:10317000104603AA8DF8083006F052FB4A4905466E
:10318000FDF736F800285FD1484D494B2A78DFF823
:1031900038A1DFF828B11344012613F8017C2B78FD
:1031A0005FFA86F94B4544D00BF038F904A94FF08B
:1031B000640801F8080D0A230122CDF80080484672
:1031C00006F0B8F9484606F0A1F903689DF8082012
:1031D0005B68DBB29A420CBF3649594632462046FC
:1031E0000BF06EF92046FDF70DF895F800C0CDF80C
:1031F000008082B20A236046214606F09BF92E49E0
:1032000020460BF099F92046FCF7FCFF95F800C02A
:103210006423009382B20A232146604606F08AF9AD
:1032200001374FF0C0082B78013B08FB03A3DB5D9F
:1032300033B10136072EB2D1002005B0BDE8F08FC2
:10324000012008F0CDF9EEE795F90030702B28D178
:10325000681C0AF08DF9C5B26B1E052B1CD80BF04B
:10326000DDF804A9642301F8080D01220093284623
:10327000322306F05FF9002006F048F903689DF854
:1032800008205B68DBB29A420CBF0A490B492A4608
:1032900020460BF015F9CFE7094920460BF04CF911
:1032A000CAE70849F9E700BFC41401084D09002026
:1032B00024160020E23701080F380108FD37010805
:1032C000633801087E380108A4110020F7B51746BD
:1032D000054600246A4601213846CDE9004406F03F
:1032E0009FFA90F90030702B11D101300AF040F9AB
:1032F000C6B201AA0221384606F092FA90F90030CF
:10330000702B06D00F4928460BF016F912E06724FF
:10331000EFE701300AF02CF9002CF3D1C4B22146BA
:103320003046FFF7DDF840B92346324606492846C5
:103330000BF0C6F8002003B0F0BD6728E2D00349C7
:10334000E1E700BF7E380108083901082539010886
:10335000F7B51746054600246A4601213846CDE9EF
:10336000004406F05DFA90F90030702B11D1013065
:103370000AF0FEF8C6B201AA0221384606F050FA59
:1033800090F90030702B06D00F4928460BF0D4F886
:1033900012E06724EFE701300AF0EAF8002CF3D1DD
:1033A000C4B221463046FFF785F840B9234632467D
:1033B000064928460BF084F8002003B0F0BD6728CA
:1033C000E2D00349E1E700BF7E380108C8200108C8
:1033D000EB2001082DE9F3478146104602AA00249C
:1033E00042F8044D012106F01BFA0AF0BDF8C5B2FF
:1033F000002D3FD0204F3B78AB423BD36B1E4FF0AC
:10340000140808FB03F31D4E9C5303EB060A02331A
:103410009C518AF81040DAF80C000AF0EBF8CAF870
:103420000C403B78AB420BD8013B3B7003F0D4FD22
:10343000134948460BF080F8002002B0BDE8F08741
:1034400008FB05F3F35C93B16C1E08FB04F404F174
:10345000140EB644F446BCE80F0034440FC4DCF844
:10346000003023601422002170460AF0E8F801358C
:10347000EDB2D6E70349DCE7F110002084660020B6
:10348000D02101080622010837B50446104602AAD9
:10349000002542F8045D012106F0C2F90AF064F843
:1034A000C0B290B10A4B1B7883420ED3094B142251
:1034B000013802FB0030057403F08EFD06492046FA
:1034C0000BF03AF8002003B030BD0449F7E700BF25
:1034D000F110002084660020E4250108062201087E
:1034E00013B50446104602AA002342F8043D012108
:1034F00006F096F90AF038F8C0B298B10A4B1B787A
:1035000083420FD3094B1422013802FB0030012300
:10351000037403F061FD064920460BF00DF800200E
:1035200002B010BD0349F7E7F110002084660020C7
:10353000DC1F0108062201082DE9F04F6C4B8BB00F
:1035400006AA044603F1080692461868596815460B
:1035500003C50833B3422A46F7D11868654F9B88E4
:10356000AB8028604FF0FF333878634900933722EF
:10357000322305F0DFFF614E4FF00008604B1B78EF
:103580005FFA88F56A1CAB42D2B207D85D49204683
:103590000AF0D2FF00200BB0BDE8F08F14236B437C
:1035A000F118F35C3BB10B7C5749C3EBC3035344A5
:1035B00020460AF085FF142303FB05F206EB020BFD
:1035C000B15C012921D0032964D04FF0140B0BFB0F
:1035D000056B4E4DDBF80C002946FFF735FC002843
:1035E00076D14B4920460AF08BFF2046FCF70AFEB5
:1035F0003D784FF0FF33009382B2322321462846B4
:1036000005F098FF08F10108B8E79BF80320DBF804
:103610000C10053A092AD8D801A050F822F000BFB2
:10362000493600085D360008CB350008CB35000868
:103630006B3600086B3600086B36000883360008CE
:10364000833600088336000803FB056322469B7817
:103650000091304920460AF033FFB6E703FB0563CB
:1036600022469B7800912C49F4E703FB056293788E
:103670000191127929490092224620460AF020FF42
:10368000A3E703FB05629378019112790092244924
:103690002246F2E7234B98589BF80320224B0590D3
:1036A000013A0C2101FB0239FCF76EFFCDE9020162
:1036B0009BF801301D49013B03EB43030B4400938E
:1036C000D9F808301A49224620460AF0F9FE7CE76C
:1036D00022462B46174920460AF0F2FE2846FCF700
:1036E00091FD00210246284609F0A9FF72E700BFBC
:1036F000901201084D090020382A01088466002034
:10370000F1100020FA2A0108702A01082111002076
:10371000EE2A01087C2A01088D2A0108A52A010841
:10372000BD2A01088A6600208C000020A825010817
:10373000D62A0108E62A010810B5044607F06AFFF8
:1037400080B2A0F5886008281DD8DFE800F0161CBC
:103750001A1C05141C1C18000C4A0D4920460AF0BE
:10376000AFFE07F051FF2246030B0A4920460AF03C
:10377000A7FE002010BD084AEFE7084AEDE7084A17
:10378000EBE7084AE9E7084AE7E700BFB424010885
:10379000BE24010801250108D1240108DB24010809
:1037A000E5240108EF240108F924010808B50449BB
:1037B0000AF0C2FE03490AF0A3FE002008BD00BFC4
:1037C000503901089631010810B5044605F000FC97
:1037D000FEF74EFE0349024620460AF071FE002025
:1037E00010BD00BF142101082DE9F7431546002341
:1037F0006A46012104462846CDE9003306F010F858
:10380000524B53491860042207460AF09DFE0028D7
:1038100054D1009D4F493E1D043D2A4630460AF0D2
:1038200093FE88B94C4B1B78602B05D14B4A4C4911
:1038300020460AF045FE6EE0202B01D1494AF6E70A
:10384000002B71D1484AF2E72A46484930460AF02F
:103850007BFE28B9404B5B78032BE7D0012BECE7CC
:103860002A46434930460AF06FFE18B9414B9A6820
:103870004149DDE72A46414930460AF065FE10B964
:103880003C4B1A88F4E72A463D4930460AF05CFE74
:1038900010B9384B5A88EBE72A463A4930460AF0C5
:1038A00053FE10B9334B1A79E2E72A4636493046BF
:1038B0000AF04AFE98BB2F4B5A79D9E705223349C3
:1038C00038460AF041FE064648BB284601AA0221B6
:1038D00005F0A6FFDFF8CC8005460A2707FB068126
:1038E0002846FCF785FC10B301360A2EF6D12A468D
:1038F00027499DE76B1E38F81330334205D02B461D
:103900002246394620460AF0DBFD0135EDB299F832
:103910000030AB42EED2002003B0BDE8F0831D4979
:1039200020460AF009FEF6E73A461B4980E72A4698
:103930001A49DFF87490DFF87480194F204601258A
:103940000AF0BEFD05FA06F6E1E700BF64110020AB
:103950007C2201088122010866640020C414010849
:10396000431301088A2201088E22010893220108CC
:1039700099220108A8650020B61B0108A5220108AC
:10398000AE220108BE220108D0220108E22201086D
:1039900021230108F0220108032301083C23010828
:1039A000E8220108360D0020240000209A0D002096
:1039B00073B50646104602AA002342F8043D0121D1
:1039C00005F02EFF019C1949224605460AF0BCFD70
:1039D00080B9174D174C0FCD0FC495E8070084E848
:1039E0000700FDF7AFFE144930460AF0A5FD0020A0
:1039F00002B070BD2246114928460AF0A5FD0246D4
:103A000008B10F49F0E71621FF2001F021FF0D4B0F
:103A1000022264201A7005F03CFEFDF7D7FE03F089
:103A2000C9FB642005F035FE0749DDE73C210108AC
:103A300008000020A8650020432101086A21010830
:103A400070210108CE0D00207F2101082DE9F04FE3
:103A500014468DB0002307AA012105462046CDE972
:103A60000733CDE909330B9305F0DAFE8D4E8E490D
:103A70003060042207460AF067FD002840F03C81D0
:103A800008AA0221204605F0CBFE884B8849186021
:103A9000336803F10408079BA3F1040907464A466B
:103AA00040460AF051FD00284ED1DDF820808149C2
:103AB000424638460AF048FD0446E8B97E4B60228B
:103AC00059781A70090211434FF48A7003F03EFFCF
:103AD000079B32680021D154744B78491B682846F3
:103AE0000AF0EEFC3CB3764928460AF009FD754918
:103AF00028460AF005FD1EE04246734938460AF0A2
:103B000023FD044610B96C4B2022D9E742466F4989
:103B100038460AF019FD044610B9674B4022CFE73A
:103B200042466B4938460AF00FFD044638B16949F0
:103B300028460AF001FD00200DB0BDE8F08F5E4B75
:103B4000597818700902BFE74A46634940460AF0AF
:103B5000FBFC002837D1DDF8208056494246384624
:103B60000AF0F2FC044630B9534B197803225A701C
:103B700041F44071A8E74246534938460AF0E4FC54
:103B8000044630B94C4B197801225A7041F48071C7
:103B90009AE74246464938460AF0D6FC044630B910
:103BA000454B197802225A7041F400718CE7424665
:103BB000474938460AF0C8FC04460028B7D13E4BB6
:103BC0005870197880E74A46444940460AF0BCFCE0
:103BD00098B9384609F0C8FCB0F5612FA7D8404C19
:103BE00081B2A0604FF48C7003F0B0FE618940F2A6
:103BF000191003F0ABFE01246AE74A4639494046F2
:103C00000AF0A2FC044650B9384609F0ADFC81B276
:103C100000298CD0324B40F21510198056E74A46E5
:103C2000314940460AF090FC044658B9384609F03C
:103C30009BFC81B200293FF47AAF294B4FF48B7083
:103C4000598043E74A46294940460AF07DFC04462C
:103C500080B9384609F088FC431E9BB2FE2B3FF624
:103C600066AF1F4B5979C0B2187140EA012140F28A
:103C700017102BE74A461E4940460AF065FC0446E9
:103C800008B11C4954E7384609F06EFC431E9BB24C
:103C9000FE2B3FF64CAF124B1979587141EA0021C7
:103CA00089B2E4E7601100207C2201086C11002039
:103CB00081220108C414010866640020312901082A
:103CC00044290108742901086C2801087428010896
:103CD0008E2201087021010893220108992201080F
:103CE000A8650020A5220108AE220108BE22010815
:103CF000D0220108F02201080422394938460AF08E
:103D000023FC00287CD108AA0221204605F088FD6A
:103D1000DFF8E490DFF8E4A0C9F8000009AA032165
:103D2000204605F07DFD0AAACAF8000004212046BD
:103D300005F076FD2B4F0BAA05213860204605F0D3
:103D40006FFD294C2060D9F8000009F00DFC5FFAE6
:103D500080F9DAF8000009F007FC8246386809F0BB
:103D600003FC246807467CB10222204920460AF061
:103D7000EBFB90B302221E4920460AF0E5FB002827
:103D80007FF4D5AE4FF00208B9F1170F3FF6CFAE72
:103D90005FFA8AFABAF13B0F3FF6C9AEFFB23B2F8A
:103DA0003FF6C5AE134C05F013F9237D228B617DE0
:103DB000A07D94F90C400097CDE90384CDE901A9D9
:103DC00005F0B8F8044600283FF482AE672C3FF4B3
:103DD00058AF682C7FF4AFAEA9E64FF00108D3E7E7
:103DE000B9220108781100207C11002078280108F0
:103DF0007B280108A86500206C11002074110020A8
:103E00000422BA4938460AF09FFB00287FF439AFF4
:103E100008AA0221204605F003FDB54FDFF858B38C
:103E2000386009AA0321204605F0FAFC0AAACBF85B
:103E300000000421204605F0F3FCDFF840830BAAC4
:103E40000521C8F80000204605F0EAFCA94C2060D6
:103E5000D8F8000009F088FB8146206809F084FB4F
:103E60003F68A5498246062238460AF06DFB0028C5
:103E700000F0F0800722A14938460AF065FB0028CF
:103E800000F0EC8009229E4938460AF05DFB0028CC
:103E900000F0E78008229B4938460AF055FB0028CD
:103EA00000F0E2800622984938460AF04DFB0028CF
:103EB00000F0DD800822954938460AF045FB0028CD
:103EC00000F0D8800622924938460AF03DFB0028CF
:103ED0000BBF002468244FF007084FF00008DBF800
:103EE00000708C49072238460AF02EFB002800F0AB
:103EF000C4800222884938460AF026FB002800F0D8
:103F0000BC800822854938460AF01EFB002800F0D4
:103F1000D9800222824938460AF016FB002800F0B8
:103F2000D18005227F4938460AF00EFB002800F0B8
:103F3000CB8002227C4938460AF006FB002800F0BC
:103F4000C3800522794938460AF0FEFA002800F0BD
:103F5000BD800222764938460AF0F6FA002800F0C1
:103F6000B5800322734938460AF0EEFA002800F0C3
:103F7000AF800222704938460AF0E6FA002800F0C5
:103F8000A78004226D4938460AF0DEFA002800F0C6
:103F9000A18002226A4938460AF0D6FA002800F0C9
:103FA00099800422674938460AF0CEFA002800F0CA
:103FB00093800222644938460AF0C6FA002800F0CD
:103FC0008B800522614938460AF0BEFA002800F0CD
:103FD000858002225E4938460AF0B6FA00287DD074
:103FE00009225C4938460AF0AFFA002878D002224C
:103FF000594938460AF0A8FA002871D007225749D3
:1040000038460AF0A1FA00286CD0022254493846FA
:104010000AF09AFA002865D00822524938460AF078
:1040200093FA002860D002224F4938460AF08CFAF1
:10403000002859D008224D4938460AF085FA38B18F
:1040400002224B4938460AF07FFA00287FF46FAD10
:104050000C2713E04FF00108044640E74FF0020838
:10406000FAE74FF00308F7E74FF00408F4E74FF0E2
:104070000508F1E74FF00608EEE70127002C7FF472
:10408000A5AE5FFA89F909F1FF331E2B3FF64FAD5C
:104090001FFA8AFAAAF5FA63642B3FF648AD04F0DA
:1040A00097FF344B93F90C200492DA7C03929A7CAC
:1040B00002925A7C01921B7C009352464346494629
:1040C00038467DE60227D9E70327D7E70427D5E757
:1040D0000527D3E70627D1E70727CFE70827CDE74E
:1040E0000927CBE70A27C9E70B27C7E7951B010874
:1040F0006C1100207C1100207E2801088528010811
:104100008D28010897280108A0280108A728010880
:10411000B0280108B7280108BF280108C2280108F3
:10412000CB280108CE280108D4280108D728010887
:10413000DD280108E0280108E4280108E728010833
:10414000EC280108EF280108F4280108F7280108E5
:10415000FE280108012901080B2901080E29010880
:104160001629010819290108222901082529010811
:104170002E290108A8650020741100207811002064
:1041800037B50546104602AA002442F8044D012125
:1041900005F046FB90F90030702B03D1013009F097
:1041A000E7F9C4B2204603F0DBFE28B923462246D5
:1041B000034928460AF084F9002003B030BD00BF4F
:1041C000202701082DE9FF419046002302AA012182
:1041D00007464046CDE9023305F022FB029E224D00
:1041E00022492860324604460AF0AEF9002833D04E
:1041F00032461F4920460AF0A7F978B332461D49D6
:1042000020460AF0A1F958B332461B4920460AF06D
:104210009BF9002814BF0026042603AA0221404669
:1042200005F0FEFA90F90030702B1BD1013009F037
:104230009FF9C4B22146304603F00AFE40B9029B02
:104240002A680E49D0540094234638460AF038F9BB
:10425000002004B0BDE8F0810126DEE70226DCE79D
:104260000326DAE70024E5E75C110020242001089A
:10427000312001083E200108472001085020010894
:104280002DE9F04F9BB0154611AE14AF00248346C4
:104290000AAA01212846CDE90A44CDE90C44CDE91A
:1042A0000E44109411947460348114947C603C81A9
:1042B000CDE91744ADF8644005F0B2FA90F900304A
:1042C000502B03D1013009F053F9C4B20BAA0221DB
:1042D000284605F0A5FA0B9A014630460AF046F941
:1042E0003046FDF78DFF0CAAC3B203212846079381
:1042F00005F096FA90F90030702B64D1013009F086
:1043000037F95FFA80F90DAA0421284605F088FAEA
:104310000D9A014638460AF029F93846FDF770FF34
:104320000EAAC3B205212846089305F079FADDF8F4
:1043300038802849424682460AF006F9002845D0CE
:104340004246254950460AF0FFF8002840D0424630
:10435000224950460AF0F8F8002814BF002302232F
:104360004246514617A809930AF000F90FAA062100
:10437000284605F055FA09F0FBF810AA07218046F7
:10438000284605F04DFA09F0F3F80022099B009346
:10439000CDE902020546CDF80480089B07994A46FC
:1043A000204601F079FA50B9CDE90385CDE90197AE
:1043B0000096234617AA0A4958460AF081F80020B9
:1043C0001BB0BDE8F08F4FF000099CE70346C7E73C
:1043D0000123C5E76827010870270108792701082C
:1043E00087270108F7B5264D2A78012A044644D9C3
:1043F00005F0E0F807462A782249234D20460AF0C6
:104400005FF82046FBF7FEFE95F800C04FF0FF3640
:1044100082B2322360462146009605F08BF81B4994
:1044200020460AF089F82046FBF7ECFE95F800C01C
:10443000009682B232232146604605F07BF8287848
:10444000FDF798FC2878FDF751FD022F0ED1104999
:1044500020460AF071F82046FBF7D4FE2D7800962E
:1044600082B232232146284605F064F809492046E5
:104470000AF062F8002003B0F0BD0027BBE700BFE0
:1044800024000020282501084D09002041250108AD
:1044900054250108803E010808B50020FDF788FD7D
:1044A000002008BD2DE9F04F4A4E4B4F8FB091468A
:1044B00000212722044604A809F0C1F8002532464D
:1044C00001214846CDE90155ADF80C5005F0A8F999
:1044D0003268014601A80AF049F80A2606FB057170
:1044E00001A8FBF785FE20B301350A2DF6D101277F
:1044F0003A4E3B49DFF8ECA00225204635700AF021
:104500001BF8384A2946484605F08AF9364B4FF0E1
:10451000000B18609846D8F8001061B9084696F963
:104520000030022B32D1314901AA204609F0C8FFE0
:1045300037E00746DCE7DAF8005004A82A460AF01C
:1045400015F80EAB1D4404A805F828BCFDF758FE6D
:1045500000283BDB01A9C0B2FDF70EFF0028DED129
:1045600096F90050022D03DD2149204609F0C8FFCD
:1045700004A9204609F0C4FF691C49B252464846C6
:10458000317005F04DF9C8F80000C4E778B901AA08
:104590005FB1184904A809F093FF04A9204609F067
:1045A000AFFF00200FB0BDE8F08F1349F2E70628F7
:1045B00002D101AA1149B8E7072802D101AA10497E
:1045C000B3E70828EDD101AA0E49AEE704AA0E49C7
:1045D000ABE700BF8C110020360D002053110020E6
:1045E0006023010880110020541100206D23010870
:1045F0006A23010899230108B3230108D223010883
:104600000F240108422401088024010870B5174EC8
:10461000174C012105461046324605F001F9336872
:10462000144E2060092BC4BF00234372014630782A
:10463000FDF742FE38B9236832780F49284609F061
:104640003FFF002070BD062805D122680B4928468F
:1046500009F036FFF5E7072802D122680849F6E796
:104660000828EED122680749F1E700BF8811002031
:10467000581100204C0F0020BA250108D223010850
:104680000F240108422401082DE9F743474C17463F
:10469000054622460121384605F0C2F818BB444BB6
:1046A00044491A78284609F00BFF434B28461968FD
:1046B00009F026FF2846FBF7A5FD404B1C784FF07C
:1046C000FF3382B2009329463223204604F032FFA2
:1046D0003B4B3C4A1A603C4B01220A201A7004F002
:1046E000D8FFFEF78FFC2268384909F02DFF0446F9
:1046F00038B13749284609F01FFF002003B0BDE854
:10470000F083344ADFF8E0900221384605F088F85B
:10471000314AC9F800000321384605F081F82F4FCF
:104720003860D9F8000090F90020232A2BD10130FD
:1047300008F01EFF5FFA80F8386890F90030702B9F
:1047400023D1013008F014FFC6B2194FDFF86C9086
:104750003B7843454FF0000219D0214B1A70214B92
:1047600001221A2140461E7001F072F8642004F004
:1047700090FF99F8002038783346414602F0D8FB84
:10478000682CBAD1B5E76824D6E76824DDE711467E
:1047900000921923304600F045FE642004F079FFB2
:1047A000397899F8002033460846E7E7841100205D
:1047B0004C0F0020942001085C0000204D090020CF
:1047C000F07F0020EFBEADDECE0D0020B42001084A
:1047D0007021010890110020941100207011002018
:1047E00066640020100E00206811002008B5114BEF
:1047F0001A78114B0A215143595C99B90F4909F0B4
:104800005FFE01224FF480610D4807F07FFEC82053
:1048100004F03FFF00224FF48061094807F076FE64
:10482000002008BD02EB820103EB4103054909F0BA
:1048300047FEE6E74C0F00203E0E00202C26010824
:10484000000402404026010808B5044909F074FE3E
:10485000403006F0C3FB002008BD00BF6C260108F5
:1048600008B5044909F068FE4F3006F071FB0020DE
:1048700008BD00BFC0260108F7B51646054600244E
:104880006A4601213046CDE9004404F0C9FF90F9A1
:104890000030702B14D1013008F06AFEC7B201AAB3
:1048A0000221304604F0BCFF08F062FE682C064688
:1048B00008D10A49284609F03FFE002003B0F0BDA8
:1048C0006824ECE70146384604F02CFE3B463246AD
:1048D0000349284609F0F4FDEFE700BF202801084E
:1048E0003328010813B50023009304460023104623
:1048F00001216A46019304F093FF0378323B012BB8
:1049000011D808F035FE01A9C0B203F0F1FD0198FD
:10491000FBF73AFE02460B462046054909F0D0FD5A
:10492000002002B010BD0349204609F005FEF7E75C
:10493000501F0108181F01081FB5044604F048FB6A
:1049400014494B7B182B0CD1C8894B7C8A7C019075
:10495000097C00912046104909F0B2FD002004B006
:1049600010BD0C2BFAD1CB7C012B0CD14B7C8A7C5B
:104970000A480290C8890190097C009120460849A4
:1049800009F09EFDEAE7022BE8D14B7C8A7C0548C2
:10499000EFE700BFA8650020A0380108EF38010844
:1049A000C6380108F23801087047000008B53548DC
:1049B00004F0B6FE344804F0B3FE344804F0B0FE10
:1049C000334804F0ADFE334804F0AAFE324804F048
:1049D000A7FE324804F0A4FE314804F0A1FE31489D
:1049E00004F09EFE304804F09BFE304804F098FE30
:1049F0002F4804F095FE2F4804F092FE2E4804F054
:104A00008FFE2E4804F08CFE2D4804F089FE2D48C0
:104A100004F086FE2C4804F083FE2C4804F080FE4F
:104A20002B4804F07DFE2B4804F07AFE2A4804F05F
:104A300077FE2A4804F074FE294804F071FE2948E4
:104A400004F06EFE284804F06BFE284804F068FE6F
:104A5000274804F065FE274804F062FE264804F06B
:104A60005FFE264804F05CFE254804F059FE254808
:104A700004F056FE244B23221A7002F0C4FBFFF709
:104A800093FF08BD10270108B02601085C26010825
:104A9000B82001083C22010858270108D425010844
:104AA000A4240108C02B010898250108102801083A
:104AB0008420010848270108282A010850230108FA
:104AC000C0210108F83801082C2101085C280108E0
:104AD00060390108182501086C220108B02B010873
:104AE000142001081C2601082C22010804210108B9
:104AF0004039010890380108301F0108941F01084F
:104B0000CC1F0108401F0108646400202DE9F0411A
:104B1000904607460E4602F077FB0F4D2A5C012AAD
:104B2000044601D9032A14D1204602F0ABFC631ECF
:104B30000A4A42F8236002222A55094A002442F810
:104B4000234038464246314602F010FE2046BDE87A
:104B5000F0811720FBE700BFCE0F00207C1600205D
:104B600064160020194A86B0002312680093116869
:104B7000009152680092009A154A019312681168D8
:104B8000019152680192019A124A029312681168C7
:104B9000029152680292029A0F4A039312681168B6
:104BA000039152680392039A0C4A049312681168A5
:104BB000049152680492049A0593094B1B681A6881
:104BC00005925B680593059B06B0704768650020F9
:104BD00044660020706400200466002028650020E0
:104BE000C465002070B58EB003265C4B019300961F
:104BF0000023F0225A495B485B4D05F04FFC5B4BAC
:104C00005B495C48CDE90063F022002305F046FCD7
:104C1000594B5A495A48CDE90063F022002305F068
:104C20003DFCFFF7C3FE574B57495848CDE9006399
:104C30004FF48C72002305F031FC0424544B019393
:104C400000940123F0225349284605F027FC524BDB
:104C50005249CDE90043F0220223284605F01EFC0C
:104C60004F4B5049CDE90043F0223346284605F02A
:104C700015FC4D4B4D494E4ECDE90043F0222346E5
:104C8000284605F00BFC4B4B4B49CDE90043F02285
:104C90000523284605F002FC484B4949F022CDE99E
:104CA00000432846062305F0F9FB0EA8002440F82F
:104CB000304D012104F003FD70600EA8012140F881
:104CC0002C4D04F0FCFC3F4D68600EA8012140F81B
:104CD000284D04F0F4FCB0600EA8012140F8244DEA
:104CE00004F0EDFCA8600EA8012140F8204D04F06E
:104CF000E6FCF0600EA8012140F81C4D04F0DFFC3A
:104D0000E8600EA8012140F8184D04F0D8FC30618D
:104D10000EA8012140F8144D04F0D1FC28610EA822
:104D2000012140F8104D04F0CAFC70610EA8012169
:104D300040F80C4D04F0C3FC68610EA8012140F856
:104D4000084D04F0BCFCB0610EA8012140F8044DF0
:104D500004F0B5FCA8610EB070BD00BFE0160020E5
:104D60007039010841510008915B0008AC16002021
:104D70007C390108315A0008DC1600208839010806
:104D800061D50008B417002091390108DD2C000816
:104D9000B016002099390108B4160020A339010883
:104DA000B8160020AD390108BC160020B73901083B
:104DB0000C670020C0160020C1390108C41600206D
:104DC000CB390108EC6600202DE9F74FCA4C236867
:104DD000032B40F08E81002323602371C74D2023D5
:104DE0006371C74EDFF854A300274FF000034FF064
:104DF00003083370C14664208AF8009004F07EF9FD
:104E000063799AF800209A4208D032788AF8003004
:104E1000511C3170BB4984F805808B549AF80020EE
:104E2000237912F0DF0F24D05A1E012AE3D8012B78
:104E300071D1B549B548B64A0B708946B549077076
:104E4000177080469346B44B9BF800001B7898423D
:104E500040F0DC80DFF8DC82DFF8B8922771177051
:104E60002F702B783F2B40F2FE8040220021A94872
:104E70004FE0002BDBD1A34A337013785B2B114634
:104E800079D1A64B4FF00A0C93F80080012311F85A
:104E90000390B9FBFCF00CFB1090C0B203F1020EC2
:104EA00040455FFA8EFE64D10133DBB2D05CB0FBCB
:104EB000FCF20CFB120C9A4A82F800C0CA5C013367
:104EC0005D2ADBB2FAD1974A337001201070194481
:104ED000C3F11402944808F0A7FB914B93491A7848
:104EE0000A70C2EB0211924A0A4403F10C0153F812
:104EF000040B42F8040B8B42F9D1198811809B787E
:104F00009370002114227F4808F099FB84481422F2
:104F1000002108F094FB2379022B7FF466AF7A4FCF
:104F2000DFF8EC91794EDFF8F0B1DFF8E8A101226B
:104F300000233A707E4A337089F80030C84698F8EA
:104F400000109BF80030994240F09A800023794F7E
:104F500089F800302679002E40F0B6803146402294
:104F60006C4808F06CFBC0223146734808F067FBC0
:104F700037E773468BE7232B694919D192F801C0B3
:104F80000A20BCFBF0F300FB13C301F8013B022332
:104F90003370644B01201870901C02F1120350F81A
:104FA000042B41F8042B9842F9D103880B8094E735
:104FB0003D2B92D192F801C00A23BCFBF3F003FB16
:104FC00010C0DFF858C18CF8000092F802C0BCFB9A
:104FD000F3F003FB10C0DFF840C18CF8000092F83A
:104FE00003C0BCFBF3F003FB10C301F8013B042337
:104FF00033704C4B01201870101D02F1140350F84F
:10500000042B41F8042B9842F9D166E79BF8003055
:1050100099F800C00192464A0091C3EB03130CF1CA
:105020000100134489F8000098F8000013F80C30D0
:105030000B5400F1010E012088F800E006F0D0FAD0
:1050400098F800300099019A0B4413F8013C13F0D2
:10505000DF0FDBD19BF8003001338BF800300123E8
:1050600089F80030EFE608EB0302012019F803305D
:1050700082F8803106F0B4FA2B7801332B70F0E619
:10508000387898F800300092411CC3EB03131344A6
:10509000397031781B5C0AF8013001F1010C0120F4
:1050A00086F800C006F09CFA3378009A534413F84F
:1050B000013C13F0DF0FE3D198F80030013388F89A
:1050C000003001233B703AE70023124E2B702B78FF
:1050D0003F2B03D9206806F083FA3BE7FA18C82073
:1050E000F35C82F8803104F009F82B7801332B70DF
:1050F000EDE703B0BDE8F08F88020020E9660020EC
:105100000967002024170020296700202C67002051
:105110000A670020E4160020286700202A67002084
:10512000C816002008670020C91600202B67002041
:1051300038170020A411002024130020E866002066
:1051400008B51E4D1E4C1F4E2A78022A26D0032A6F
:105150002CD0012A0FD120464FF4806107F0D6F9F8
:10516000C82004F096FA00224FF48061204607F030
:10517000CDF900232B7003F025FBFDF701FFFFF7AE
:1051800023FE114B1B780BB9104A13704FF080535C
:105190003360BFF34F8FBFF36F8FD5E720460122F7
:1051A0004FF4806107F0B2F96420DAE7204601226B
:1051B0004FF4806107F0AAF91E20D2E7CE0D00203F
:1051C0000004024004ED00E0BD200020BB200020D0
:1051D000044B42F210721B68B3FBF2F3024A1360F5
:1051E000704700BF9C000020B017002070B50F4B27
:1051F0000F4D1C682E684FF47A70B4FBF0F405F084
:1052000015FB0C4B1B685B0148BF2B6804F1FF3496
:1052100048BFE41A084B58BFA41B1B68B4FBF3F447
:1052200048BF01300A2303FB004070BD9C000020F2
:1052300018E000E004ED00E0B017002010B506F023
:1052400075F9C4B2204602F0F7F82046BDE81040D8
:1052500002F05EBA2DE9FF4105468DF80F30184681
:105260009DF8283098420E46144604D14E4B022237
:105270001A54672013E00028FBD0002BF9D0ADBBF7
:1052800004F044F907469DF8280004F03FF9012294
:1052900001463846FFF73AFC172803D1172004B01F
:1052A000BDE8F081414B00934FF47A7000FB04F1AC
:1052B0000DF10F030022B1FBF0F13D4805F0CEFFE8
:1052C0009DF80F303B4A013B044642F82360002C16
:1052D00067D005F0A5FA4FF0FF3300930246002394
:1052E0000121204605F0DEFF0020D8E7012D16D170
:1052F000184604F00BF907469DF80F0004F006F974
:105300002A4601463846FFF701FC1728C6D0274B2E
:1053100000934FF47A7000FB04F10AABCAE7022D48
:10532000A7D104F0F3F805469DF8280004F0EEF844
:10533000012201462846FFF7E9FB1728AED04FF4BB
:105340007A711A4F009700224C430DF10F03B4FB02
:10535000F1F41748174D214605F080FF9DF80F30F6
:105360009DF82800013B45F8236004F0CFF8804603
:105370009DF80F0004F0CAF8012201464046FFF7ED
:10538000C5FB17288AD00AAB21460097002208489F
:1053900005F064FF9DF82830013B044645F8236082
:1053A00095E720467BE700BFCE0F00203D52000866
:1053B000D5390108941600200138052824D8DFE8E3
:1053C00000F0030A0F14191E002310480222194688
:1053D000006805F08BBE0023022219460C48F7E74F
:1053E0000023022219460B48F2E700230222194645
:1053F0000948EDE70023022219460848E8E70023A0
:10540000022219460648E3E7704700BFB0160020A5
:10541000B4160020B8160020BC160020C0160020CC
:10542000C41600202DE9F04F89B0884604921F462B
:10543000BDF84850039030B913460233DBB2012B5C
:1054400005D967200AE111B1049B002BF9D0002097
:1054500005F038F9B74E05900521002005F040F918
:10546000482333705A237370039B002B47D1B8F144
:10547000000F40F05A81049B0233DBB2012B00F293
:105480005081013DAC4BAD485C5DAD4B38212246AF
:1054900001FB053108F0C8F804F103094A46A549A3
:1054A000A848B47008F0C0F84946A64802F0A0F930
:1054B000382206F809000021A24808F0C0F8049B31
:1054C0000233DBB2012BA5B29F4C40F2F4802C3F9B
:1054D000012F9E4F00F2E9802A1D322392B2954996
:1054E0000398FBF771FD00233B70237000200599A2
:1054F00005F0F6F8964B02221A700020AEE0002F5D
:10550000BFD0B8F1000F02D1924B93F80080924ABD
:10551000049BF37053781079127886F804809B000E
:10552000FF2F4FF0000143EA001343EA02038CBF50
:1055300001220A4643EA420388BF3A0ADBB286BF29
:10554000F2714FF0010B8B462E2DB1707371B77154
:1055500038D8824B82491B880BF107002A46194430
:1055600030442C1D08F060F85C44E4B27D4B1B789D
:10557000002B91D07C4B93F80090B9F1FF0F00F015
:10558000FF80012303FA09F96A49784BDFF8E8C183
:1055900093F800A0002213465944924553D10BF1D1
:1055A00007022A441A441D442B2DB35455DC70487D
:1055B000017832440131C9B202340170517053FA9A
:1055C00084F4EAE063F07F0373716A4B1D809946AF
:1055D0000BF10703F31800242E250693B9F800A059
:1055E000BAF1000FC2D0BAFBF5F39BB2ABB13B46A8
:1055F000049A009541460398FFF714FF0A2004F02F
:1056000048F8B9F80030554A5B1BA9F800301388F8
:105610002B441380AA465546E0E7504C7279218806
:105620004F48079302F07F02727101445246069878
:1056300007F0FAFF079B23800AF104045C44A9F8F1
:105640000030E4B2E7E73CF8120010EA090F0ED090
:105650000133DBB258192C2803DD692009B0BDE8FD
:10566000F08FC818284402F1010E80F806E00132DC
:1056700093E732232A462F490398FBF7A5FCC8205D
:1056800004F007F83B78002B7FF42DAF23782BB183
:1056900032232A4627490398FBF796FC0136B8F8CF
:1056A0000620F3B29342E4D31DE704350026DFF869
:1056B000A880ADB2F3E727B9B8F1000F01D196F891
:1056C0000480DFF8B890DFF88CA04046DFF86480F3
:1056D000FCF70EFA00239AF80020013A5F1C39F813
:1056E000122042FA03F3DB07F8B211D52E1DB6B231
:1056F000322332464146FBF767FCC82003F0C9FF5E
:1057000023782BB13223324641460398FBF75CFCE9
:1057100000230A20237003F0F1FC062F3B46DAD168
:10572000E4E6002F3FF4ADAEEEE6002F3FF4A9AE65
:10573000EDE600BFD20D00200A0E0020D50D00209E
:10574000E20B00202A160020E00F0020AC0200200F
:10575000F00F00204C0F002066640020B8170020D6
:10576000100E0020AE0200202500002024000020A2
:10577000920B0020BA1700209A0D0020940B0020F5
:105780002C2D3FF66AAF064A137806EB0B01013366
:105790000D44DBB21370EB710134E4B27CE600BF60
:1057A000920B002073B50B4B00241C70421E382353
:1057B0005343094AD55C094B064629461878FCF73D
:1057C00035FA009623462A462146FFF72BFE20464F
:1057D00002B070BDAE020020E20B00204C0F002092
:1057E00007B502460848002303700848FF2A0270E4
:1057F000009118BFFE2219461846FFF713FE00203D
:1058000003B05DF804FB00BFAE02002025000020BD
:1058100037B51C460B4B01251D700B4BFF2919702A
:10582000134600940CBF0A46FE2201460020FFF7F3
:10583000F9FD22460021054807F001FF002003B0D2
:1058400030BD00BFAE02002025000020100E002059
:10585000F7B504460E4FFF2C0E461546387810D08B
:105860002146FCF7E3F93978009522463346FFF7E5
:10587000D9FD2A460021074807F0E1FE002003B0C9
:10588000F0BD13460A462146FFF7C2FFF6E700BF08
:105890004C0F0020100E00202DE9F04F91B0DDE9F3
:1058A0001B6798469DF874300893330E0E93C6F329
:1058B00007430A93C6F307230D933B0E0F93C7F3D9
:1058C00007430B93C7F307230C934C4B07901B78AC
:1058D0009DF868A08B420D46914620D0484B320E71
:1058E0001A700A9A5A700D9A9A703A0E1A710B9A97
:1058F0005A710C9A9A71089A58721A731C210D22C7
:105900002846DE70DF7183F808A083F80A8083F8E8
:105910000B90FFF79DFF002011B0BDE8F08F394CD0
:10592000DFF8DCB041462846FCF780F920780028F3
:105930003CD0617800295DD0FCF778F941460990A8
:105940002846FCF773F92078404555D014F8011C1F
:10595000FCF76CF90E9B8BF800300A9B8BF801303A
:105960000D9B8BF802300F9B8BF804300B9B8BF850
:1059700005300C9B8BF80630099B8BF809308BF8AF
:105980000A00089B8BF80B30414628468BF80360D1
:105990008BF807708BF808A0FCF748F90C221B2144
:1059A0002078FFF755FF0A2003F073FE164B0134F1
:1059B0009C42B7D1454504D041462846FCF736F90C
:1059C0008146079BCDF800903A4631465046FFF796
:1059D00041FC089B002B9ED00023CDE90333CDE989
:1059E0000133CDF80090079B3A4631465046FBF70D
:1059F00071FE90E729469FE74846ABE74C0F002031
:105A0000100E00202D67002047670020BFF34F8F46
:105A10000549064BCA6802F4E0621343CB60BFF34A
:105A20004F8F00BFFDE700BF00ED00E00400FA0566
:105A30002DE9F74FDFF850B1D946474A9BF80030BF
:105A400012789A426BD0454A454F12F803A0454D53
:105A50000AF1FF34E4B24FF48C76385D4FF0380C25
:105A600066430CFB006148226B186A544FF05A0ED3
:105A700083F801E09A783C4B695C197083F801E087
:105A80009A701CFB006000218A4251DCD11C364810
:105A9000019201F0ADFE3549019A0B8801330B806C
:105AA000395D4FF48C734FF03808634308FB0133C2
:105AB0002B441344DB78834248D12D4803880133BB
:105AC00003802C4B03361A552B4B019318FB0161B5
:105AD000C4EBC40003EBC000294407F0A5FD08FB9C
